{
  "_format": "hh-sol-artifact-1",
  "contractName": "SavingsPool",
  "sourceName": "contracts/SavingsPool.sol",
  "abi": [
    {
      "inputs": [
        {
          "internalType": "address",
          "name": "_stablecoin",
          "type": "address"
        },
        {
          "internalType": "address",
          "name": "_scoreRegistry",
          "type": "address"
        },
        {
          "internalType": "address",
          "name": "_rewardVault",
          "type": "address"
        },
        {
          "internalType": "address",
          "name": "_treasury",
          "type": "address"
        },
        {
          "internalType": "uint16",
          "name": "_depositFeeBps",
          "type": "uint16"
        },
        {
          "internalType": "address",
          "name": "_owner",
          "type": "address"
        }
      ],
      "stateMutability": "nonpayable",
      "type": "constructor"
    },
    {
      "inputs": [],
      "name": "EnforcedPause",
      "type": "error"
    },
    {
      "inputs": [],
      "name": "ExcessiveFee",
      "type": "error"
    },
    {
      "inputs": [],
      "name": "ExpectedPause",
      "type": "error"
    },
    {
      "inputs": [],
      "name": "InsufficientAmount",
      "type": "error"
    },
    {
      "inputs": [],
      "name": "InsufficientBalance",
      "type": "error"
    },
    {
      "inputs": [],
      "name": "InvalidToken",
      "type": "error"
    },
    {
      "inputs": [],
      "name": "NoPermitSupport",
      "type": "error"
    },
    {
      "inputs": [
        {
          "internalType": "address",
          "name": "owner",
          "type": "address"
        }
      ],
      "name": "OwnableInvalidOwner",
      "type": "error"
    },
    {
      "inputs": [
        {
          "internalType": "address",
          "name": "account",
          "type": "address"
        }
      ],
      "name": "OwnableUnauthorizedAccount",
      "type": "error"
    },
    {
      "inputs": [],
      "name": "ReentrancyGuardReentrantCall",
      "type": "error"
    },
    {
      "inputs": [
        {
          "internalType": "address",
          "name": "token",
          "type": "address"
        }
      ],
      "name": "SafeERC20FailedOperation",
      "type": "error"
    },
    {
      "inputs": [],
      "name": "ZeroAddress",
      "type": "error"
    },
    {
      "anonymous": false,
      "inputs": [
        {
          "indexed": true,
          "internalType": "address",
          "name": "user",
          "type": "address"
        },
        {
          "indexed": false,
          "internalType": "uint256",
          "name": "amount",
          "type": "uint256"
        },
        {
          "indexed": false,
          "internalType": "uint256",
          "name": "netAmount",
          "type": "uint256"
        },
        {
          "indexed": false,
          "internalType": "uint40",
          "name": "dayIndex",
          "type": "uint40"
        }
      ],
      "name": "Deposited",
      "type": "event"
    },
    {
      "anonymous": false,
      "inputs": [
        {
          "indexed": false,
          "internalType": "uint16",
          "name": "depositFeeBps",
          "type": "uint16"
        }
      ],
      "name": "FeeUpdated",
      "type": "event"
    },
    {
      "anonymous": false,
      "inputs": [
        {
          "indexed": true,
          "internalType": "address",
          "name": "previousOwner",
          "type": "address"
        },
        {
          "indexed": true,
          "internalType": "address",
          "name": "newOwner",
          "type": "address"
        }
      ],
      "name": "OwnershipTransferred",
      "type": "event"
    },
    {
      "anonymous": false,
      "inputs": [
        {
          "indexed": false,
          "internalType": "address",
          "name": "account",
          "type": "address"
        }
      ],
      "name": "Paused",
      "type": "event"
    },
    {
      "anonymous": false,
      "inputs": [
        {
          "indexed": true,
          "internalType": "address",
          "name": "user",
          "type": "address"
        },
        {
          "indexed": false,
          "internalType": "uint16",
          "name": "newScore",
          "type": "uint16"
        },
        {
          "indexed": false,
          "internalType": "uint16",
          "name": "streakDays",
          "type": "uint16"
        },
        {
          "indexed": false,
          "internalType": "uint8",
          "name": "freq30",
          "type": "uint8"
        }
      ],
      "name": "ScoreUpdated",
      "type": "event"
    },
    {
      "anonymous": false,
      "inputs": [
        {
          "indexed": false,
          "internalType": "address",
          "name": "treasury",
          "type": "address"
        }
      ],
      "name": "TreasuryUpdated",
      "type": "event"
    },
    {
      "anonymous": false,
      "inputs": [
        {
          "indexed": false,
          "internalType": "address",
          "name": "account",
          "type": "address"
        }
      ],
      "name": "Unpaused",
      "type": "event"
    },
    {
      "anonymous": false,
      "inputs": [
        {
          "indexed": true,
          "internalType": "address",
          "name": "user",
          "type": "address"
        },
        {
          "indexed": false,
          "internalType": "uint256",
          "name": "amount",
          "type": "uint256"
        }
      ],
      "name": "Withdrawn",
      "type": "event"
    },
    {
      "inputs": [],
      "name": "MAX_FEE_BPS",
      "outputs": [
        {
          "internalType": "uint16",
          "name": "",
          "type": "uint16"
        }
      ],
      "stateMutability": "view",
      "type": "function"
    },
    {
      "inputs": [],
      "name": "STABLE",
      "outputs": [
        {
          "internalType": "contract IERC20",
          "name": "",
          "type": "address"
        }
      ],
      "stateMutability": "view",
      "type": "function"
    },
    {
      "inputs": [
        {
          "internalType": "address",
          "name": "",
          "type": "address"
        }
      ],
      "name": "balances",
      "outputs": [
        {
          "internalType": "uint256",
          "name": "",
          "type": "uint256"
        }
      ],
      "stateMutability": "view",
      "type": "function"
    },
    {
      "inputs": [
        {
          "internalType": "uint256",
          "name": "amount",
          "type": "uint256"
        }
      ],
      "name": "deposit",
      "outputs": [],
      "stateMutability": "nonpayable",
      "type": "function"
    },
    {
      "inputs": [],
      "name": "depositFeeBps",
      "outputs": [
        {
          "internalType": "uint16",
          "name": "",
          "type": "uint16"
        }
      ],
      "stateMutability": "view",
      "type": "function"
    },
    {
      "inputs": [
        {
          "internalType": "address",
          "name": "token",
          "type": "address"
        },
        {
          "internalType": "uint256",
          "name": "amount",
          "type": "uint256"
        }
      ],
      "name": "emergencyWithdraw",
      "outputs": [],
      "stateMutability": "nonpayable",
      "type": "function"
    },
    {
      "inputs": [
        {
          "internalType": "address",
          "name": "user",
          "type": "address"
        }
      ],
      "name": "getUserDepositCount",
      "outputs": [
        {
          "internalType": "uint256",
          "name": "",
          "type": "uint256"
        }
      ],
      "stateMutability": "view",
      "type": "function"
    },
    {
      "inputs": [
        {
          "internalType": "address",
          "name": "user",
          "type": "address"
        }
      ],
      "name": "getUserDepositDays",
      "outputs": [
        {
          "internalType": "uint40[]",
          "name": "",
          "type": "uint40[]"
        }
      ],
      "stateMutability": "view",
      "type": "function"
    },
    {
      "inputs": [
        {
          "internalType": "address",
          "name": "",
          "type": "address"
        }
      ],
      "name": "lastScoredDay",
      "outputs": [
        {
          "internalType": "uint40",
          "name": "",
          "type": "uint40"
        }
      ],
      "stateMutability": "view",
      "type": "function"
    },
    {
      "inputs": [],
      "name": "owner",
      "outputs": [
        {
          "internalType": "address",
          "name": "",
          "type": "address"
        }
      ],
      "stateMutability": "view",
      "type": "function"
    },
    {
      "inputs": [],
      "name": "pause",
      "outputs": [],
      "stateMutability": "nonpayable",
      "type": "function"
    },
    {
      "inputs": [],
      "name": "paused",
      "outputs": [
        {
          "internalType": "bool",
          "name": "",
          "type": "bool"
        }
      ],
      "stateMutability": "view",
      "type": "function"
    },
    {
      "inputs": [
        {
          "internalType": "uint256",
          "name": "amount",
          "type": "uint256"
        },
        {
          "internalType": "uint256",
          "name": "deadline",
          "type": "uint256"
        },
        {
          "internalType": "uint8",
          "name": "v",
          "type": "uint8"
        },
        {
          "internalType": "bytes32",
          "name": "r",
          "type": "bytes32"
        },
        {
          "internalType": "bytes32",
          "name": "s",
          "type": "bytes32"
        }
      ],
      "name": "permitDeposit",
      "outputs": [],
      "stateMutability": "nonpayable",
      "type": "function"
    },
    {
      "inputs": [],
      "name": "renounceOwnership",
      "outputs": [],
      "stateMutability": "nonpayable",
      "type": "function"
    },
    {
      "inputs": [],
      "name": "rewardVault",
      "outputs": [
        {
          "internalType": "contract IRewardVault",
          "name": "",
          "type": "address"
        }
      ],
      "stateMutability": "view",
      "type": "function"
    },
    {
      "inputs": [],
      "name": "scoreRegistry",
      "outputs": [
        {
          "internalType": "contract IScoreRegistry",
          "name": "",
          "type": "address"
        }
      ],
      "stateMutability": "view",
      "type": "function"
    },
    {
      "inputs": [
        {
          "internalType": "uint16",
          "name": "_depositFeeBps",
          "type": "uint16"
        }
      ],
      "name": "setFeeBps",
      "outputs": [],
      "stateMutability": "nonpayable",
      "type": "function"
    },
    {
      "inputs": [
        {
          "internalType": "address",
          "name": "_treasury",
          "type": "address"
        }
      ],
      "name": "setTreasury",
      "outputs": [],
      "stateMutability": "nonpayable",
      "type": "function"
    },
    {
      "inputs": [],
      "name": "totalDeposits",
      "outputs": [
        {
          "internalType": "uint256",
          "name": "",
          "type": "uint256"
        }
      ],
      "stateMutability": "view",
      "type": "function"
    },
    {
      "inputs": [
        {
          "internalType": "address",
          "name": "newOwner",
          "type": "address"
        }
      ],
      "name": "transferOwnership",
      "outputs": [],
      "stateMutability": "nonpayable",
      "type": "function"
    },
    {
      "inputs": [],
      "name": "treasury",
      "outputs": [
        {
          "internalType": "address",
          "name": "",
          "type": "address"
        }
      ],
      "stateMutability": "view",
      "type": "function"
    },
    {
      "inputs": [],
      "name": "unpause",
      "outputs": [],
      "stateMutability": "nonpayable",
      "type": "function"
    },
    {
      "inputs": [
        {
          "internalType": "uint256",
          "name": "amount",
          "type": "uint256"
        }
      ],
      "name": "withdraw",
      "outputs": [],
      "stateMutability": "nonpayable",
      "type": "function"
    }
  ],
  "bytecode": "0x60e06040523480156200001157600080fd5b5060405162002cd138038062002cd183398181016040528101906200003791906200044b565b80600073ffffffffffffffffffffffffffffffffffffffff168173ffffffffffffffffffffffffffffffffffffffff1603620000ad5760006040517f1e4fbdf7000000000000000000000000000000000000000000000000000000008152600401620000a49190620004f8565b60405180910390fd5b620000be81620002de60201b60201c565b5060018081905550600073ffffffffffffffffffffffffffffffffffffffff168673ffffffffffffffffffffffffffffffffffffffff16036200012d576040517fc1ab6dc100000000000000000000000000000000000000000000000000000000815260040160405180910390fd5b600073ffffffffffffffffffffffffffffffffffffffff168573ffffffffffffffffffffffffffffffffffffffff160362000194576040517fd92e233d00000000000000000000000000000000000000000000000000000000815260040160405180910390fd5b606461ffff168261ffff161115620001d8576040517f2977da4400000000000000000000000000000000000000000000000000000000815260040160405180910390fd5b8573ffffffffffffffffffffffffffffffffffffffff1660808173ffffffffffffffffffffffffffffffffffffffff16815250508473ffffffffffffffffffffffffffffffffffffffff1660a08173ffffffffffffffffffffffffffffffffffffffff16815250508373ffffffffffffffffffffffffffffffffffffffff1660c08173ffffffffffffffffffffffffffffffffffffffff168152505082600260016101000a81548173ffffffffffffffffffffffffffffffffffffffff021916908373ffffffffffffffffffffffffffffffffffffffff16021790555081600260156101000a81548161ffff021916908361ffff16021790555050505050505062000515565b60008060009054906101000a900473ffffffffffffffffffffffffffffffffffffffff169050816000806101000a81548173ffffffffffffffffffffffffffffffffffffffff021916908373ffffffffffffffffffffffffffffffffffffffff1602179055508173ffffffffffffffffffffffffffffffffffffffff168173ffffffffffffffffffffffffffffffffffffffff167f8be0079c531659141344cd1fd0a4f28419497f9722a3daafe3b4186f6b6457e060405160405180910390a35050565b600080fd5b600073ffffffffffffffffffffffffffffffffffffffff82169050919050565b6000620003d482620003a7565b9050919050565b620003e681620003c7565b8114620003f257600080fd5b50565b6000815190506200040681620003db565b92915050565b600061ffff82169050919050565b62000425816200040c565b81146200043157600080fd5b50565b60008151905062000445816200041a565b92915050565b60008060008060008060c087890312156200046b576200046a620003a2565b5b60006200047b89828a01620003f5565b96505060206200048e89828a01620003f5565b9550506040620004a189828a01620003f5565b9450506060620004b489828a01620003f5565b9350506080620004c789828a0162000434565b92505060a0620004da89828a01620003f5565b9150509295509295509295565b620004f281620003c7565b82525050565b60006020820190506200050f6000830184620004e7565b92915050565b60805160a05160c05161273862000599600039600081816106d401528181610cca01528181610d060152818161190d01526119490152600081816106f801528181610b6a01526117b30152600081816106340152818161072e0152818161096b01528181610a8a01528181610e90015281816115b401526116d301526127386000f3fe608060405234801561001057600080fd5b506004361061014d5760003560e01c80637d882097116100c3578063b6b55f251161007c578063b6b55f2514610344578063ce84daad14610360578063d55be8c61461037c578063d68b29fe1461039a578063f0f44260146103ca578063f2fde38b146103e65761014d565b80637d882097146102945780638456cb59146102b25780638da5cb5b146102bc57806395ccea67146102da5780639ab1af67146102f6578063ab879827146103265761014d565b80633eb8104a116101155780633eb8104a146102085780633f4ba83a1461022657806354d9f653146102305780635c975abb1461024e57806361d027b31461026c578063715018a61461028a5761014d565b8063023b1fc9146101525780631bae91a41461016e57806327e235e31461019e5780632e1a7d4d146101ce5780633a2c6777146101ea575b600080fd5b61016c60048036038101906101679190611b68565b610402565b005b61018860048036038101906101839190611bf3565b6104a4565b6040516101959190611c39565b60405180910390f35b6101b860048036038101906101b39190611bf3565b6104f0565b6040516101c59190611c39565b60405180910390f35b6101e860048036038101906101e39190611c80565b610508565b005b6101f26106d2565b6040516101ff9190611d0c565b60405180910390f35b6102106106f6565b60405161021d9190611d48565b60405180910390f35b61022e61071a565b005b61023861072c565b6040516102459190611d84565b60405180910390f35b610256610750565b6040516102639190611dba565b60405180910390f35b610274610767565b6040516102819190611de4565b60405180910390f35b61029261078d565b005b61029c6107a1565b6040516102a99190611c39565b60405180910390f35b6102ba6107a7565b005b6102c46107b9565b6040516102d19190611de4565b60405180910390f35b6102f460048036038101906102ef9190611dff565b6107e2565b005b610310600480360381019061030b9190611bf3565b610828565b60405161031d9190611f0e565b60405180910390f35b61032e6108ed565b60405161033b9190611f3f565b60405180910390f35b61035e60048036038101906103599190611c80565b610901565b005b61037a60048036038101906103759190611fc9565b610e44565b005b610384610f6d565b6040516103919190611f3f565b60405180910390f35b6103b460048036038101906103af9190611bf3565b610f72565b6040516103c19190612053565b60405180910390f35b6103e460048036038101906103df9190611bf3565b610f96565b005b61040060048036038101906103fb9190611bf3565b611019565b005b61040a61109f565b606461ffff168161ffff16111561044d576040517f2977da4400000000000000000000000000000000000000000000000000000000815260040160405180910390fd5b80600260156101000a81548161ffff021916908361ffff1602179055507fc8fcf8ee1425e7e60b8af83735e1eb516d5b9ef05bfd6eece552ebaeb7c75b48816040516104999190611f3f565b60405180910390a150565b6000600560008373ffffffffffffffffffffffffffffffffffffffff1673ffffffffffffffffffffffffffffffffffffffff168152602001908152602001600020805490509050919050565b60036020528060005260406000206000915090505481565b610510611126565b61051861116c565b60008103610552576040517f5945ea5600000000000000000000000000000000000000000000000000000000815260040160405180910390fd5b80600360003373ffffffffffffffffffffffffffffffffffffffff1673ffffffffffffffffffffffffffffffffffffffff1681526020019081526020016000205410156105cb576040517ff4d678b800000000000000000000000000000000000000000000000000000000815260040160405180910390fd5b600033905081600360008373ffffffffffffffffffffffffffffffffffffffff1673ffffffffffffffffffffffffffffffffffffffff168152602001908152602001600020600082825403925050819055508160046000828254039250508190555061067881837f000000000000000000000000000000000000000000000000000000000000000073ffffffffffffffffffffffffffffffffffffffff166111ad9092919063ffffffff16565b8073ffffffffffffffffffffffffffffffffffffffff167f7084f5476618d8e60b11ef0d7d3f06914655adb8793e28ff7f018d4c76d505d5836040516106be9190611c39565b60405180910390a2506106cf61122c565b50565b7f000000000000000000000000000000000000000000000000000000000000000081565b7f000000000000000000000000000000000000000000000000000000000000000081565b61072261109f565b61072a611235565b565b7f000000000000000000000000000000000000000000000000000000000000000081565b6000600260009054906101000a900460ff16905090565b600260019054906101000a900473ffffffffffffffffffffffffffffffffffffffff1681565b61079561109f565b61079f6000611298565b565b60045481565b6107af61109f565b6107b761135c565b565b60008060009054906101000a900473ffffffffffffffffffffffffffffffffffffffff16905090565b6107ea61109f565b6107f26113bf565b6108246107fd6107b9565b828473ffffffffffffffffffffffffffffffffffffffff166111ad9092919063ffffffff16565b5050565b6060600560008373ffffffffffffffffffffffffffffffffffffffff1673ffffffffffffffffffffffffffffffffffffffff1681526020019081526020016000208054806020026020016040519081016040528092919081815260200182805480156108e157602002820191906000526020600020906000905b82829054906101000a900464ffffffffff1664ffffffffff16815260200190600501906020826004010492830192600103820291508084116108a25790505b50505050509050919050565b600260159054906101000a900461ffff1681565b610909611126565b61091161116c565b6000810361094b576040517f5945ea5600000000000000000000000000000000000000000000000000000000815260040160405180910390fd5b60003390506000620151804261096191906120cc565b90506109b08230857f000000000000000000000000000000000000000000000000000000000000000073ffffffffffffffffffffffffffffffffffffffff166113ff909392919063ffffffff16565b600080600260159054906101000a900461ffff1661ffff16118015610a245750600073ffffffffffffffffffffffffffffffffffffffff16600260019054906101000a900473ffffffffffffffffffffffffffffffffffffffff1673ffffffffffffffffffffffffffffffffffffffff1614155b15610ad057612710600260159054906101000a900461ffff1661ffff1685610a4c91906120fd565b610a5691906120cc565b90506000811115610acf57610ace600260019054906101000a900473ffffffffffffffffffffffffffffffffffffffff16827f000000000000000000000000000000000000000000000000000000000000000073ffffffffffffffffffffffffffffffffffffffff166111ad9092919063ffffffff16565b5b5b60008185610ade919061213f565b905080600360008673ffffffffffffffffffffffffffffffffffffffff1673ffffffffffffffffffffffffffffffffffffffff1681526020019081526020016000206000828254610b2f9190612173565b925050819055508060046000828254610b489190612173565b925050819055506000610b5b8585611481565b905060008060008315610ddf577f000000000000000000000000000000000000000000000000000000000000000073ffffffffffffffffffffffffffffffffffffffff1663950f2dae89600560008c73ffffffffffffffffffffffffffffffffffffffff1673ffffffffffffffffffffffffffffffffffffffff1681526020019081526020016000206040518363ffffffff1660e01b8152600401610c019291906124a2565b6060604051808303816000875af1158015610c20573d6000803e3d6000fd5b505050506040513d601f19601f82011682018060405250810190610c4491906124fc565b80935081945082955050505086600660008a73ffffffffffffffffffffffffffffffffffffffff1673ffffffffffffffffffffffffffffffffffffffff16815260200190815260200160002060006101000a81548164ffffffffff021916908364ffffffffff160217905550600073ffffffffffffffffffffffffffffffffffffffff167f000000000000000000000000000000000000000000000000000000000000000073ffffffffffffffffffffffffffffffffffffffff1614610d8c577f000000000000000000000000000000000000000000000000000000000000000073ffffffffffffffffffffffffffffffffffffffff1663b0fb566489846040518363ffffffff1660e01b8152600401610d5f92919061254f565b600060405180830381600087803b158015610d7957600080fd5b505af1925050508015610d8a575060015b505b8773ffffffffffffffffffffffffffffffffffffffff167f9b24ce28727f6853c576fdd52d3dd47b59988260937e521e19296bcf93361fa6848484604051610dd693929190612587565b60405180910390a25b8773ffffffffffffffffffffffffffffffffffffffff167fcb5867ada7e790a7d70414567cba30a43473fe877223b5fa637f5af7edd02e528a878a604051610e29939291906125be565b60405180910390a25050505050505050610e4161122c565b50565b610e4c611126565b610e5461116c565b60008503610e8e576040517f5945ea5600000000000000000000000000000000000000000000000000000000815260040160405180910390fd5b7f000000000000000000000000000000000000000000000000000000000000000073ffffffffffffffffffffffffffffffffffffffff1663d505accf333088888888886040518863ffffffff1660e01b8152600401610ef39796959493929190612604565b600060405180830381600087803b158015610f0d57600080fd5b505af1925050508015610f1e575060015b610f54576040517f0d0ad80100000000000000000000000000000000000000000000000000000000815260040160405180910390fd5b610f5e3386611599565b610f6661122c565b5050505050565b606481565b60066020528060005260406000206000915054906101000a900464ffffffffff1681565b610f9e61109f565b80600260016101000a81548173ffffffffffffffffffffffffffffffffffffffff021916908373ffffffffffffffffffffffffffffffffffffffff1602179055507f7dae230f18360d76a040c81f050aa14eb9d6dc7901b20fc5d855e2a20fe814d18160405161100e9190611de4565b60405180910390a150565b61102161109f565b600073ffffffffffffffffffffffffffffffffffffffff168173ffffffffffffffffffffffffffffffffffffffff16036110935760006040517f1e4fbdf700000000000000000000000000000000000000000000000000000000815260040161108a9190611de4565b60405180910390fd5b61109c81611298565b50565b6110a7611a7f565b73ffffffffffffffffffffffffffffffffffffffff166110c56107b9565b73ffffffffffffffffffffffffffffffffffffffff1614611124576110e8611a7f565b6040517f118cdaa700000000000000000000000000000000000000000000000000000000815260040161111b9190611de4565b60405180910390fd5b565b600260015403611162576040517f3ee5aeb500000000000000000000000000000000000000000000000000000000815260040160405180910390fd5b6002600181905550565b611174610750565b156111ab576040517fd93c066500000000000000000000000000000000000000000000000000000000815260040160405180910390fd5b565b611227838473ffffffffffffffffffffffffffffffffffffffff1663a9059cbb85856040516024016111e0929190612673565b604051602081830303815290604052915060e01b6020820180517bffffffffffffffffffffffffffffffffffffffffffffffffffffffff8381831617835250505050611a87565b505050565b60018081905550565b61123d6113bf565b6000600260006101000a81548160ff0219169083151502179055507f5db9ee0a495bf2e6ff9c91a7834c1ba4fdd244a5e8aa4e537bd38aeae4b073aa611281611a7f565b60405161128e9190611de4565b60405180910390a1565b60008060009054906101000a900473ffffffffffffffffffffffffffffffffffffffff169050816000806101000a81548173ffffffffffffffffffffffffffffffffffffffff021916908373ffffffffffffffffffffffffffffffffffffffff1602179055508173ffffffffffffffffffffffffffffffffffffffff168173ffffffffffffffffffffffffffffffffffffffff167f8be0079c531659141344cd1fd0a4f28419497f9722a3daafe3b4186f6b6457e060405160405180910390a35050565b61136461116c565b6001600260006101000a81548160ff0219169083151502179055507f62e78cea01bee320cd4e420270b5ea74000d11b0c9f74754ebdbfc544b05a2586113a8611a7f565b6040516113b59190611de4565b60405180910390a1565b6113c7610750565b6113fd576040517f8dfc202b00000000000000000000000000000000000000000000000000000000815260040160405180910390fd5b565b61147b848573ffffffffffffffffffffffffffffffffffffffff166323b872dd8686866040516024016114349392919061269c565b604051602081830303815290604052915060e01b6020820180517bffffffffffffffffffffffffffffffffffffffffffffffffffffffff8381831617835250505050611a87565b50505050565b600080600560008573ffffffffffffffffffffffffffffffffffffffff1673ffffffffffffffffffffffffffffffffffffffff16815260200190815260200160002090506000818054905011801561152f57508264ffffffffff1681600183805490506114ee919061213f565b815481106114ff576114fe6126d3565b5b90600052602060002090600691828204019190066005029054906101000a900464ffffffffff1664ffffffffff16145b1561153e576000915050611593565b808390806001815401808255809150506001900390600052602060002090600691828204019190066005029091909190916101000a81548164ffffffffff021916908364ffffffffff16021790555060019150505b92915050565b600062015180426115aa91906120cc565b90506115f98330847f000000000000000000000000000000000000000000000000000000000000000073ffffffffffffffffffffffffffffffffffffffff166113ff909392919063ffffffff16565b600080600260159054906101000a900461ffff1661ffff1611801561166d5750600073ffffffffffffffffffffffffffffffffffffffff16600260019054906101000a900473ffffffffffffffffffffffffffffffffffffffff1673ffffffffffffffffffffffffffffffffffffffff1614155b1561171957612710600260159054906101000a900461ffff1661ffff168461169591906120fd565b61169f91906120cc565b9050600081111561171857611717600260019054906101000a900473ffffffffffffffffffffffffffffffffffffffff16827f000000000000000000000000000000000000000000000000000000000000000073ffffffffffffffffffffffffffffffffffffffff166111ad9092919063ffffffff16565b5b5b60008184611727919061213f565b905080600360008773ffffffffffffffffffffffffffffffffffffffff1673ffffffffffffffffffffffffffffffffffffffff16815260200190815260200160002060008282546117789190612173565b9250508190555080600460008282546117919190612173565b9250508190555060006117a48685611481565b90508015611a255760008060007f000000000000000000000000000000000000000000000000000000000000000073ffffffffffffffffffffffffffffffffffffffff1663950f2dae8a600560008d73ffffffffffffffffffffffffffffffffffffffff1673ffffffffffffffffffffffffffffffffffffffff1681526020019081526020016000206040518363ffffffff1660e01b815260040161184a9291906124a2565b6060604051808303816000875af1158015611869573d6000803e3d6000fd5b505050506040513d601f19601f8201168201806040525081019061188d91906124fc565b92509250925086600660008b73ffffffffffffffffffffffffffffffffffffffff1673ffffffffffffffffffffffffffffffffffffffff16815260200190815260200160002060006101000a81548164ffffffffff021916908364ffffffffff160217905550600073ffffffffffffffffffffffffffffffffffffffff167f000000000000000000000000000000000000000000000000000000000000000073ffffffffffffffffffffffffffffffffffffffff16146119cf577f000000000000000000000000000000000000000000000000000000000000000073ffffffffffffffffffffffffffffffffffffffff1663b0fb56648a846040518363ffffffff1660e01b81526004016119a292919061254f565b600060405180830381600087803b1580156119bc57600080fd5b505af19250505080156119cd575060015b505b8873ffffffffffffffffffffffffffffffffffffffff167f9b24ce28727f6853c576fdd52d3dd47b59988260937e521e19296bcf93361fa6848484604051611a1993929190612587565b60405180910390a25050505b8573ffffffffffffffffffffffffffffffffffffffff167fcb5867ada7e790a7d70414567cba30a43473fe877223b5fa637f5af7edd02e52868487604051611a6f939291906125be565b60405180910390a2505050505050565b600033905090565b600080602060008451602086016000885af180611aaa576040513d6000823e3d81fd5b3d925060005191505060008214611ac5576001811415611ae1565b60008473ffffffffffffffffffffffffffffffffffffffff163b145b15611b2357836040517f5274afe7000000000000000000000000000000000000000000000000000000008152600401611b1a9190611de4565b60405180910390fd5b50505050565b600080fd5b600061ffff82169050919050565b611b4581611b2e565b8114611b5057600080fd5b50565b600081359050611b6281611b3c565b92915050565b600060208284031215611b7e57611b7d611b29565b5b6000611b8c84828501611b53565b91505092915050565b600073ffffffffffffffffffffffffffffffffffffffff82169050919050565b6000611bc082611b95565b9050919050565b611bd081611bb5565b8114611bdb57600080fd5b50565b600081359050611bed81611bc7565b92915050565b600060208284031215611c0957611c08611b29565b5b6000611c1784828501611bde565b91505092915050565b6000819050919050565b611c3381611c20565b82525050565b6000602082019050611c4e6000830184611c2a565b92915050565b611c5d81611c20565b8114611c6857600080fd5b50565b600081359050611c7a81611c54565b92915050565b600060208284031215611c9657611c95611b29565b5b6000611ca484828501611c6b565b91505092915050565b6000819050919050565b6000611cd2611ccd611cc884611b95565b611cad565b611b95565b9050919050565b6000611ce482611cb7565b9050919050565b6000611cf682611cd9565b9050919050565b611d0681611ceb565b82525050565b6000602082019050611d216000830184611cfd565b92915050565b6000611d3282611cd9565b9050919050565b611d4281611d27565b82525050565b6000602082019050611d5d6000830184611d39565b92915050565b6000611d6e82611cd9565b9050919050565b611d7e81611d63565b82525050565b6000602082019050611d996000830184611d75565b92915050565b60008115159050919050565b611db481611d9f565b82525050565b6000602082019050611dcf6000830184611dab565b92915050565b611dde81611bb5565b82525050565b6000602082019050611df96000830184611dd5565b92915050565b60008060408385031215611e1657611e15611b29565b5b6000611e2485828601611bde565b9250506020611e3585828601611c6b565b9150509250929050565b600081519050919050565b600082825260208201905092915050565b6000819050602082019050919050565b600064ffffffffff82169050919050565b611e8581611e6b565b82525050565b6000611e978383611e7c565b60208301905092915050565b6000602082019050919050565b6000611ebb82611e3f565b611ec58185611e4a565b9350611ed083611e5b565b8060005b83811015611f01578151611ee88882611e8b565b9750611ef383611ea3565b925050600181019050611ed4565b5085935050505092915050565b60006020820190508181036000830152611f288184611eb0565b905092915050565b611f3981611b2e565b82525050565b6000602082019050611f546000830184611f30565b92915050565b600060ff82169050919050565b611f7081611f5a565b8114611f7b57600080fd5b50565b600081359050611f8d81611f67565b92915050565b6000819050919050565b611fa681611f93565b8114611fb157600080fd5b50565b600081359050611fc381611f9d565b92915050565b600080600080600060a08688031215611fe557611fe4611b29565b5b6000611ff388828901611c6b565b955050602061200488828901611c6b565b945050604061201588828901611f7e565b935050606061202688828901611fb4565b925050608061203788828901611fb4565b9150509295509295909350565b61204d81611e6b565b82525050565b60006020820190506120686000830184612044565b92915050565b7f4e487b7100000000000000000000000000000000000000000000000000000000600052601260045260246000fd5b7f4e487b7100000000000000000000000000000000000000000000000000000000600052601160045260246000fd5b60006120d782611c20565b91506120e283611c20565b9250826120f2576120f161206e565b5b828204905092915050565b600061210882611c20565b915061211383611c20565b925082820261212181611c20565b915082820484148315176121385761213761209d565b5b5092915050565b600061214a82611c20565b915061215583611c20565b925082820390508181111561216d5761216c61209d565b5b92915050565b600061217e82611c20565b915061218983611c20565b92508282019050808211156121a1576121a061209d565b5b92915050565b600081549050919050565b60008190508160005260206000209050919050565b60008160001c9050919050565b600064ffffffffff82169050919050565b60006121f86121f3836121c7565b6121d4565b9050919050565b60008160281c9050919050565b600061221f61221a836121ff565b6121d4565b9050919050565b60008160501c9050919050565b600061224661224183612226565b6121d4565b9050919050565b60008160781c9050919050565b600061226d6122688361224d565b6121d4565b9050919050565b60008160a01c9050919050565b600061229461228f83612274565b6121d4565b9050919050565b60008160c81c9050919050565b60006122bb6122b68361229b565b6121d4565b9050919050565b60006122cd826121a7565b6122d78185611e4a565b9350836122e3846121b2565b60006001156123a0575b8360016006038201101561239f57815461230f8861230a836121e5565b611e7c565b602088019750612327886123228361220c565b611e7c565b60208801975061233f8861233a83612233565b611e7c565b602088019750612357886123528361225a565b611e7c565b60208801975061236f8861236a83612281565b611e7c565b60208801975061238788612382836122a8565b611e7c565b602088019750600183019250506006810190506122ed565b5b600115612495578154848210156123d0576123c3886123be836121e5565b611e7c565b6020880197506001820191505b848210156123f7576123ea886123e58361220c565b611e7c565b6020880197506001820191505b8482101561241e576124118861240c83612233565b611e7c565b6020880197506001820191505b8482101561244557612438886124338361225a565b611e7c565b6020880197506001820191505b8482101561246c5761245f8861245a83612281565b611e7c565b6020880197506001820191505b848210156124935761248688612481836122a8565b611e7c565b6020880197506001820191505b505b8694505050505092915050565b60006040820190506124b76000830185611dd5565b81810360208301526124c981846122c2565b90509392505050565b6000815190506124e181611b3c565b92915050565b6000815190506124f681611f67565b92915050565b60008060006060848603121561251557612514611b29565b5b6000612523868287016124d2565b9350506020612534868287016124d2565b9250506040612545868287016124e7565b9150509250925092565b60006040820190506125646000830185611dd5565b6125716020830184611f30565b9392505050565b61258181611f5a565b82525050565b600060608201905061259c6000830186611f30565b6125a96020830185611f30565b6125b66040830184612578565b949350505050565b60006060820190506125d36000830186611c2a565b6125e06020830185611c2a565b6125ed6040830184612044565b949350505050565b6125fe81611f93565b82525050565b600060e082019050612619600083018a611dd5565b6126266020830189611dd5565b6126336040830188611c2a565b6126406060830187611c2a565b61264d6080830186612578565b61265a60a08301856125f5565b61266760c08301846125f5565b98975050505050505050565b60006040820190506126886000830185611dd5565b6126956020830184611c2a565b9392505050565b60006060820190506126b16000830186611dd5565b6126be6020830185611dd5565b6126cb6040830184611c2a565b949350505050565b7f4e487b7100000000000000000000000000000000000000000000000000000000600052603260045260246000fdfea26469706673582212208272fbfe1f5b2980e1a14d22c02a69135683c29b330a1a834f8a0b98c5cf56e864736f6c63430008140033",
  "linkReferences": {},
  "deployedLinkReferences": {}
}