{
  "_format": "hh-sol-artifact-1",
  "contractName": "ScoreRegistry",
  "sourceName": "contracts/ScoreRegistry.sol",
  "abi": [
    {
      "inputs": [
        {
          "internalType": "address",
          "name": "_savingsPool",
          "type": "address"
        },
        {
          "internalType": "address",
          "name": "_owner",
          "type": "address"
        }
      ],
      "stateMutability": "nonpayable",
      "type": "constructor"
    },
    {
      "inputs": [],
      "name": "InvalidUser",
      "type": "error"
    },
    {
      "inputs": [],
      "name": "OnlyPool",
      "type": "error"
    },
    {
      "inputs": [
        {
          "internalType": "address",
          "name": "owner",
          "type": "address"
        }
      ],
      "name": "OwnableInvalidOwner",
      "type": "error"
    },
    {
      "inputs": [
        {
          "internalType": "address",
          "name": "account",
          "type": "address"
        }
      ],
      "name": "OwnableUnauthorizedAccount",
      "type": "error"
    },
    {
      "anonymous": false,
      "inputs": [
        {
          "indexed": true,
          "internalType": "address",
          "name": "previousOwner",
          "type": "address"
        },
        {
          "indexed": true,
          "internalType": "address",
          "name": "newOwner",
          "type": "address"
        }
      ],
      "name": "OwnershipTransferred",
      "type": "event"
    },
    {
      "anonymous": false,
      "inputs": [
        {
          "indexed": true,
          "internalType": "address",
          "name": "user",
          "type": "address"
        },
        {
          "indexed": false,
          "internalType": "uint16",
          "name": "score",
          "type": "uint16"
        },
        {
          "indexed": false,
          "internalType": "uint16",
          "name": "streak",
          "type": "uint16"
        },
        {
          "indexed": false,
          "internalType": "uint8",
          "name": "freq30",
          "type": "uint8"
        }
      ],
      "name": "ScoreSet",
      "type": "event"
    },
    {
      "inputs": [],
      "name": "FREQ_WINDOW",
      "outputs": [
        {
          "internalType": "uint256",
          "name": "",
          "type": "uint256"
        }
      ],
      "stateMutability": "view",
      "type": "function"
    },
    {
      "inputs": [],
      "name": "GRACE_PERIOD",
      "outputs": [
        {
          "internalType": "uint256",
          "name": "",
          "type": "uint256"
        }
      ],
      "stateMutability": "view",
      "type": "function"
    },
    {
      "inputs": [],
      "name": "MAX_SCORE",
      "outputs": [
        {
          "internalType": "uint16",
          "name": "",
          "type": "uint16"
        }
      ],
      "stateMutability": "view",
      "type": "function"
    },
    {
      "inputs": [
        {
          "internalType": "address",
          "name": "",
          "type": "address"
        }
      ],
      "name": "getUserFreq30",
      "outputs": [
        {
          "internalType": "uint8",
          "name": "",
          "type": "uint8"
        }
      ],
      "stateMutability": "pure",
      "type": "function"
    },
    {
      "inputs": [
        {
          "internalType": "address",
          "name": "user",
          "type": "address"
        }
      ],
      "name": "getUserScore",
      "outputs": [
        {
          "internalType": "uint16",
          "name": "",
          "type": "uint16"
        }
      ],
      "stateMutability": "view",
      "type": "function"
    },
    {
      "inputs": [
        {
          "internalType": "address",
          "name": "user",
          "type": "address"
        }
      ],
      "name": "getUserStats",
      "outputs": [
        {
          "internalType": "uint16",
          "name": "userScore",
          "type": "uint16"
        },
        {
          "internalType": "uint16",
          "name": "userStreak",
          "type": "uint16"
        },
        {
          "internalType": "uint8",
          "name": "freq30",
          "type": "uint8"
        }
      ],
      "stateMutability": "view",
      "type": "function"
    },
    {
      "inputs": [
        {
          "internalType": "address",
          "name": "user",
          "type": "address"
        }
      ],
      "name": "getUserStreak",
      "outputs": [
        {
          "internalType": "uint16",
          "name": "",
          "type": "uint16"
        }
      ],
      "stateMutability": "view",
      "type": "function"
    },
    {
      "inputs": [
        {
          "internalType": "address",
          "name": "",
          "type": "address"
        }
      ],
      "name": "lastScoredDay",
      "outputs": [
        {
          "internalType": "uint40",
          "name": "",
          "type": "uint40"
        }
      ],
      "stateMutability": "view",
      "type": "function"
    },
    {
      "inputs": [],
      "name": "owner",
      "outputs": [
        {
          "internalType": "address",
          "name": "",
          "type": "address"
        }
      ],
      "stateMutability": "view",
      "type": "function"
    },
    {
      "inputs": [],
      "name": "renounceOwnership",
      "outputs": [],
      "stateMutability": "nonpayable",
      "type": "function"
    },
    {
      "inputs": [],
      "name": "savingsPool",
      "outputs": [
        {
          "internalType": "address",
          "name": "",
          "type": "address"
        }
      ],
      "stateMutability": "view",
      "type": "function"
    },
    {
      "inputs": [
        {
          "internalType": "address",
          "name": "",
          "type": "address"
        }
      ],
      "name": "score",
      "outputs": [
        {
          "internalType": "uint16",
          "name": "",
          "type": "uint16"
        }
      ],
      "stateMutability": "view",
      "type": "function"
    },
    {
      "inputs": [
        {
          "internalType": "address",
          "name": "",
          "type": "address"
        }
      ],
      "name": "streakDays",
      "outputs": [
        {
          "internalType": "uint16",
          "name": "",
          "type": "uint16"
        }
      ],
      "stateMutability": "view",
      "type": "function"
    },
    {
      "inputs": [
        {
          "internalType": "address",
          "name": "newOwner",
          "type": "address"
        }
      ],
      "name": "transferOwnership",
      "outputs": [],
      "stateMutability": "nonpayable",
      "type": "function"
    },
    {
      "inputs": [
        {
          "internalType": "address",
          "name": "user",
          "type": "address"
        },
        {
          "internalType": "uint40[]",
          "name": "userDaysFromPool",
          "type": "uint40[]"
        }
      ],
      "name": "updateScore",
      "outputs": [
        {
          "internalType": "uint16",
          "name": "newScore",
          "type": "uint16"
        },
        {
          "internalType": "uint16",
          "name": "newStreak",
          "type": "uint16"
        },
        {
          "internalType": "uint8",
          "name": "freq30",
          "type": "uint8"
        }
      ],
      "stateMutability": "nonpayable",
      "type": "function"
    }
  ],
  "bytecode": "0x60a06040523480156200001157600080fd5b50604051620015ab380380620015ab833981810160405281019062000037919062000290565b80600073ffffffffffffffffffffffffffffffffffffffff168173ffffffffffffffffffffffffffffffffffffffff1603620000ad5760006040517f1e4fbdf7000000000000000000000000000000000000000000000000000000008152600401620000a49190620002e8565b60405180910390fd5b620000be816200016260201b60201c565b50600073ffffffffffffffffffffffffffffffffffffffff168273ffffffffffffffffffffffffffffffffffffffff160362000126576040517ffd684c3b00000000000000000000000000000000000000000000000000000000815260040160405180910390fd5b8173ffffffffffffffffffffffffffffffffffffffff1660808173ffffffffffffffffffffffffffffffffffffffff1681525050505062000305565b60008060009054906101000a900473ffffffffffffffffffffffffffffffffffffffff169050816000806101000a81548173ffffffffffffffffffffffffffffffffffffffff021916908373ffffffffffffffffffffffffffffffffffffffff1602179055508173ffffffffffffffffffffffffffffffffffffffff168173ffffffffffffffffffffffffffffffffffffffff167f8be0079c531659141344cd1fd0a4f28419497f9722a3daafe3b4186f6b6457e060405160405180910390a35050565b600080fd5b600073ffffffffffffffffffffffffffffffffffffffff82169050919050565b600062000258826200022b565b9050919050565b6200026a816200024b565b81146200027657600080fd5b50565b6000815190506200028a816200025f565b92915050565b60008060408385031215620002aa57620002a962000226565b5b6000620002ba8582860162000279565b9250506020620002cd8582860162000279565b9150509250929050565b620002e2816200024b565b82525050565b6000602082019050620002ff6000830184620002d7565b92915050565b60805161128362000328600039600081816103ff01526104a701526112836000f3fe608060405234801561001057600080fd5b50600436106100f55760003560e01c806378df39a711610097578063c1a287e211610066578063c1a287e2146102a0578063c57f2dfd146102be578063d68b29fe146102ee578063f2fde38b1461031e576100f5565b806378df39a7146101f05780638da5cb5b14610220578063950f2dae1461023e578063b34e0c4714610270576100f5565b80634e43603a116100d35780634e43603a146101665780636fa0e65314610198578063715018a6146101b6578063776f3843146101c0576100f5565b806327ff6223146100fa57806348fecad2146101185780634a9359da14610136575b600080fd5b61010261033a565b60405161010f9190610ca7565b60405180910390f35b61012061033f565b60405161012d9190610cdb565b60405180910390f35b610150600480360381019061014b9190610d5e565b610346565b60405161015d9190610da7565b60405180910390f35b610180600480360381019061017b9190610d5e565b61034d565b60405161018f93929190610dc2565b60405180910390f35b6101a06103fd565b6040516101ad9190610e08565b60405180910390f35b6101be610421565b005b6101da60048036038101906101d59190610d5e565b610435565b6040516101e79190610ca7565b60405180910390f35b61020a60048036038101906102059190610d5e565b610456565b6040516102179190610ca7565b60405180910390f35b610228610477565b6040516102359190610e08565b60405180910390f35b61025860048036038101906102539190610e88565b6104a0565b60405161026793929190610dc2565b60405180910390f35b61028a60048036038101906102859190610d5e565b610769565b6040516102979190610ca7565b60405180910390f35b6102a86107c0565b6040516102b59190610cdb565b60405180910390f35b6102d860048036038101906102d39190610d5e565b6107c7565b6040516102e59190610ca7565b60405180910390f35b61030860048036038101906103039190610d5e565b61081e565b6040516103159190610f08565b60405180910390f35b61033860048036038101906103339190610d5e565b610842565b005b606481565b62278d0081565b6000919050565b6000806000600160008573ffffffffffffffffffffffffffffffffffffffff1673ffffffffffffffffffffffffffffffffffffffff16815260200190815260200160002060009054906101000a900461ffff169250600260008573ffffffffffffffffffffffffffffffffffffffff1673ffffffffffffffffffffffffffffffffffffffff16815260200190815260200160002060009054906101000a900461ffff169150600090509193909250565b7f000000000000000000000000000000000000000000000000000000000000000081565b6104296108c8565b610433600061094f565b565b60016020528060005260406000206000915054906101000a900461ffff1681565b60026020528060005260406000206000915054906101000a900461ffff1681565b60008060009054906101000a900473ffffffffffffffffffffffffffffffffffffffff16905090565b60008060007f000000000000000000000000000000000000000000000000000000000000000073ffffffffffffffffffffffffffffffffffffffff163373ffffffffffffffffffffffffffffffffffffffff161461052a576040517f4b60273500000000000000000000000000000000000000000000000000000000815260040160405180910390fd5b600073ffffffffffffffffffffffffffffffffffffffff168673ffffffffffffffffffffffffffffffffffffffff1603610590576040517ffd684c3b00000000000000000000000000000000000000000000000000000000815260040160405180910390fd5b600062015180426105a19190610f81565b90506105ae868683610a13565b91506105bc87878784610b5c565b925060008260ff1660028561ffff166105d59190610fb2565b6105df9190610ff4565b9050606461ffff1681116105f357806105f6565b60645b945084600160008a73ffffffffffffffffffffffffffffffffffffffff1673ffffffffffffffffffffffffffffffffffffffff16815260200190815260200160002060006101000a81548161ffff021916908361ffff16021790555083600260008a73ffffffffffffffffffffffffffffffffffffffff1673ffffffffffffffffffffffffffffffffffffffff16815260200190815260200160002060006101000a81548161ffff021916908361ffff16021790555081600360008a73ffffffffffffffffffffffffffffffffffffffff1673ffffffffffffffffffffffffffffffffffffffff16815260200190815260200160002060006101000a81548164ffffffffff021916908364ffffffffff1602179055508773ffffffffffffffffffffffffffffffffffffffff167fd4aa3a778f7de8988dd04fa0d6d79d3bc629ecfd224a29ed9300321606c5f80b86868660405161075693929190610dc2565b60405180910390a2505093509350939050565b6000600160008373ffffffffffffffffffffffffffffffffffffffff1673ffffffffffffffffffffffffffffffffffffffff16815260200190815260200160002060009054906101000a900461ffff169050919050565b6201fa4081565b6000600260008373ffffffffffffffffffffffffffffffffffffffff1673ffffffffffffffffffffffffffffffffffffffff16815260200190815260200160002060009054906101000a900461ffff169050919050565b60036020528060005260406000206000915054906101000a900464ffffffffff1681565b61084a6108c8565b600073ffffffffffffffffffffffffffffffffffffffff168173ffffffffffffffffffffffffffffffffffffffff16036108bc5760006040517f1e4fbdf70000000000000000000000000000000000000000000000000000000081526004016108b39190610e08565b60405180910390fd5b6108c58161094f565b50565b6108d0610c82565b73ffffffffffffffffffffffffffffffffffffffff166108ee610477565b73ffffffffffffffffffffffffffffffffffffffff161461094d57610911610c82565b6040517f118cdaa70000000000000000000000000000000000000000000000000000000081526004016109449190610e08565b60405180910390fd5b565b60008060009054906101000a900473ffffffffffffffffffffffffffffffffffffffff169050816000806101000a81548173ffffffffffffffffffffffffffffffffffffffff021916908373ffffffffffffffffffffffffffffffffffffffff1602179055508173ffffffffffffffffffffffffffffffffffffffff168173ffffffffffffffffffffffffffffffffffffffff167f8be0079c531659141344cd1fd0a4f28419497f9722a3daafe3b4186f6b6457e060405160405180910390a35050565b6000808484905003610a285760009050610b55565b60008484600187879050610a3c9190611028565b818110610a4c57610a4b61105c565b5b9050602002016020810190610a6191906110b7565b90506000601d8264ffffffffff161015610a7c576000610a8a565b601d82610a8991906110e4565b5b905060005b86869050811015610b3b578164ffffffffff16878783818110610ab557610ab461105c565b5b9050602002016020810190610aca91906110b7565b64ffffffffff1610158015610b1457508264ffffffffff16878783818110610af557610af461105c565b5b9050602002016020810190610b0a91906110b7565b64ffffffffff1611155b15610b28578380610b249061111d565b9450505b8080610b3390611146565b915050610a8f565b5060ff8360ff1611610b4d5782610b50565b60ff5b925050505b9392505050565b6000808484905003610b715760009050610c7a565b60008484600187879050610b859190611028565b818110610b9557610b9461105c565b5b9050602002016020810190610baa91906110b7565b9050600191506000600182610bbf91906110e4565b90506000600287879050610bd39190611198565b90505b60008112610c5b576000878783818110610bf357610bf261105c565b5b9050602002016020810190610c0891906110b7565b90508264ffffffffff168164ffffffffff1603610c41578480610c2a906111db565b955050600181610c3a91906110e4565b9250610c47565b50610c5b565b508080610c5390611205565b915050610bd6565b5061ffff80168361ffff1611610c715782610c75565b61ffff5b925050505b949350505050565b600033905090565b600061ffff82169050919050565b610ca181610c8a565b82525050565b6000602082019050610cbc6000830184610c98565b92915050565b6000819050919050565b610cd581610cc2565b82525050565b6000602082019050610cf06000830184610ccc565b92915050565b600080fd5b600080fd5b600073ffffffffffffffffffffffffffffffffffffffff82169050919050565b6000610d2b82610d00565b9050919050565b610d3b81610d20565b8114610d4657600080fd5b50565b600081359050610d5881610d32565b92915050565b600060208284031215610d7457610d73610cf6565b5b6000610d8284828501610d49565b91505092915050565b600060ff82169050919050565b610da181610d8b565b82525050565b6000602082019050610dbc6000830184610d98565b92915050565b6000606082019050610dd76000830186610c98565b610de46020830185610c98565b610df16040830184610d98565b949350505050565b610e0281610d20565b82525050565b6000602082019050610e1d6000830184610df9565b92915050565b600080fd5b600080fd5b600080fd5b60008083601f840112610e4857610e47610e23565b5b8235905067ffffffffffffffff811115610e6557610e64610e28565b5b602083019150836020820283011115610e8157610e80610e2d565b5b9250929050565b600080600060408486031215610ea157610ea0610cf6565b5b6000610eaf86828701610d49565b935050602084013567ffffffffffffffff811115610ed057610ecf610cfb565b5b610edc86828701610e32565b92509250509250925092565b600064ffffffffff82169050919050565b610f0281610ee8565b82525050565b6000602082019050610f1d6000830184610ef9565b92915050565b7f4e487b7100000000000000000000000000000000000000000000000000000000600052601260045260246000fd5b7f4e487b7100000000000000000000000000000000000000000000000000000000600052601160045260246000fd5b6000610f8c82610cc2565b9150610f9783610cc2565b925082610fa757610fa6610f23565b5b828204905092915050565b6000610fbd82610cc2565b9150610fc883610cc2565b9250828202610fd681610cc2565b91508282048414831517610fed57610fec610f52565b5b5092915050565b6000610fff82610cc2565b915061100a83610cc2565b925082820190508082111561102257611021610f52565b5b92915050565b600061103382610cc2565b915061103e83610cc2565b925082820390508181111561105657611055610f52565b5b92915050565b7f4e487b7100000000000000000000000000000000000000000000000000000000600052603260045260246000fd5b61109481610ee8565b811461109f57600080fd5b50565b6000813590506110b18161108b565b92915050565b6000602082840312156110cd576110cc610cf6565b5b60006110db848285016110a2565b91505092915050565b60006110ef82610ee8565b91506110fa83610ee8565b9250828203905064ffffffffff81111561111757611116610f52565b5b92915050565b600061112882610d8b565b915060ff820361113b5761113a610f52565b5b600182019050919050565b600061115182610cc2565b91507fffffffffffffffffffffffffffffffffffffffffffffffffffffffffffffffff820361118357611182610f52565b5b600182019050919050565b6000819050919050565b60006111a38261118e565b91506111ae8361118e565b92508282039050818112600084121682821360008512151617156111d5576111d4610f52565b5b92915050565b60006111e682610c8a565b915061ffff82036111fa576111f9610f52565b5b600182019050919050565b60006112108261118e565b91507f8000000000000000000000000000000000000000000000000000000000000000820361124257611241610f52565b5b60018203905091905056fea264697066735822122058f1b7ee69e4350bebeb580379d120e62f5c997fa0a18b24353fd94dafd36aa864736f6c63430008140033",
  "linkReferences": {},
  "deployedLinkReferences": {}
}