{
  "_format": "hh-sol-artifact-1",
  "contractName": "MockERC20",
  "sourceName": "contracts/mocks/MockERC20.sol",
  "abi": [
    {
      "inputs": [
        {
          "internalType": "string",
          "name": "name",
          "type": "string"
        },
        {
          "internalType": "string",
          "name": "symbol",
          "type": "string"
        },
        {
          "internalType": "uint8",
          "name": "decimals_",
          "type": "uint8"
        },
        {
          "internalType": "address",
          "name": "owner",
          "type": "address"
        }
      ],
      "stateMutability": "nonpayable",
      "type": "constructor"
    },
    {
      "inputs": [],
      "name": "ECDSAInvalidSignature",
      "type": "error"
    },
    {
      "inputs": [
        {
          "internalType": "uint256",
          "name": "length",
          "type": "uint256"
        }
      ],
      "name": "ECDSAInvalidSignatureLength",
      "type": "error"
    },
    {
      "inputs": [
        {
          "internalType": "bytes32",
          "name": "s",
          "type": "bytes32"
        }
      ],
      "name": "ECDSAInvalidSignatureS",
      "type": "error"
    },
    {
      "inputs": [
        {
          "internalType": "address",
          "name": "spender",
          "type": "address"
        },
        {
          "internalType": "uint256",
          "name": "allowance",
          "type": "uint256"
        },
        {
          "internalType": "uint256",
          "name": "needed",
          "type": "uint256"
        }
      ],
      "name": "ERC20InsufficientAllowance",
      "type": "error"
    },
    {
      "inputs": [
        {
          "internalType": "address",
          "name": "sender",
          "type": "address"
        },
        {
          "internalType": "uint256",
          "name": "balance",
          "type": "uint256"
        },
        {
          "internalType": "uint256",
          "name": "needed",
          "type": "uint256"
        }
      ],
      "name": "ERC20InsufficientBalance",
      "type": "error"
    },
    {
      "inputs": [
        {
          "internalType": "address",
          "name": "approver",
          "type": "address"
        }
      ],
      "name": "ERC20InvalidApprover",
      "type": "error"
    },
    {
      "inputs": [
        {
          "internalType": "address",
          "name": "receiver",
          "type": "address"
        }
      ],
      "name": "ERC20InvalidReceiver",
      "type": "error"
    },
    {
      "inputs": [
        {
          "internalType": "address",
          "name": "sender",
          "type": "address"
        }
      ],
      "name": "ERC20InvalidSender",
      "type": "error"
    },
    {
      "inputs": [
        {
          "internalType": "address",
          "name": "spender",
          "type": "address"
        }
      ],
      "name": "ERC20InvalidSpender",
      "type": "error"
    },
    {
      "inputs": [
        {
          "internalType": "uint256",
          "name": "deadline",
          "type": "uint256"
        }
      ],
      "name": "ERC2612ExpiredSignature",
      "type": "error"
    },
    {
      "inputs": [
        {
          "internalType": "address",
          "name": "signer",
          "type": "address"
        },
        {
          "internalType": "address",
          "name": "owner",
          "type": "address"
        }
      ],
      "name": "ERC2612InvalidSigner",
      "type": "error"
    },
    {
      "inputs": [
        {
          "internalType": "address",
          "name": "account",
          "type": "address"
        },
        {
          "internalType": "uint256",
          "name": "currentNonce",
          "type": "uint256"
        }
      ],
      "name": "InvalidAccountNonce",
      "type": "error"
    },
    {
      "inputs": [],
      "name": "InvalidShortString",
      "type": "error"
    },
    {
      "inputs": [
        {
          "internalType": "address",
          "name": "owner",
          "type": "address"
        }
      ],
      "name": "OwnableInvalidOwner",
      "type": "error"
    },
    {
      "inputs": [
        {
          "internalType": "address",
          "name": "account",
          "type": "address"
        }
      ],
      "name": "OwnableUnauthorizedAccount",
      "type": "error"
    },
    {
      "inputs": [
        {
          "internalType": "string",
          "name": "str",
          "type": "string"
        }
      ],
      "name": "StringTooLong",
      "type": "error"
    },
    {
      "anonymous": false,
      "inputs": [
        {
          "indexed": true,
          "internalType": "address",
          "name": "owner",
          "type": "address"
        },
        {
          "indexed": true,
          "internalType": "address",
          "name": "spender",
          "type": "address"
        },
        {
          "indexed": false,
          "internalType": "uint256",
          "name": "value",
          "type": "uint256"
        }
      ],
      "name": "Approval",
      "type": "event"
    },
    {
      "anonymous": false,
      "inputs": [],
      "name": "EIP712DomainChanged",
      "type": "event"
    },
    {
      "anonymous": false,
      "inputs": [
        {
          "indexed": true,
          "internalType": "address",
          "name": "previousOwner",
          "type": "address"
        },
        {
          "indexed": true,
          "internalType": "address",
          "name": "newOwner",
          "type": "address"
        }
      ],
      "name": "OwnershipTransferred",
      "type": "event"
    },
    {
      "anonymous": false,
      "inputs": [
        {
          "indexed": true,
          "internalType": "address",
          "name": "from",
          "type": "address"
        },
        {
          "indexed": true,
          "internalType": "address",
          "name": "to",
          "type": "address"
        },
        {
          "indexed": false,
          "internalType": "uint256",
          "name": "value",
          "type": "uint256"
        }
      ],
      "name": "Transfer",
      "type": "event"
    },
    {
      "inputs": [],
      "name": "DOMAIN_SEPARATOR",
      "outputs": [
        {
          "internalType": "bytes32",
          "name": "",
          "type": "bytes32"
        }
      ],
      "stateMutability": "view",
      "type": "function"
    },
    {
      "inputs": [
        {
          "internalType": "address",
          "name": "owner",
          "type": "address"
        },
        {
          "internalType": "address",
          "name": "spender",
          "type": "address"
        }
      ],
      "name": "allowance",
      "outputs": [
        {
          "internalType": "uint256",
          "name": "",
          "type": "uint256"
        }
      ],
      "stateMutability": "view",
      "type": "function"
    },
    {
      "inputs": [
        {
          "internalType": "address",
          "name": "spender",
          "type": "address"
        },
        {
          "internalType": "uint256",
          "name": "value",
          "type": "uint256"
        }
      ],
      "name": "approve",
      "outputs": [
        {
          "internalType": "bool",
          "name": "",
          "type": "bool"
        }
      ],
      "stateMutability": "nonpayable",
      "type": "function"
    },
    {
      "inputs": [
        {
          "internalType": "address",
          "name": "account",
          "type": "address"
        }
      ],
      "name": "balanceOf",
      "outputs": [
        {
          "internalType": "uint256",
          "name": "",
          "type": "uint256"
        }
      ],
      "stateMutability": "view",
      "type": "function"
    },
    {
      "inputs": [
        {
          "internalType": "address[]",
          "name": "recipients",
          "type": "address[]"
        },
        {
          "internalType": "uint256[]",
          "name": "amounts",
          "type": "uint256[]"
        }
      ],
      "name": "batchMint",
      "outputs": [],
      "stateMutability": "nonpayable",
      "type": "function"
    },
    {
      "inputs": [
        {
          "internalType": "address",
          "name": "from",
          "type": "address"
        },
        {
          "internalType": "uint256",
          "name": "amount",
          "type": "uint256"
        }
      ],
      "name": "burn",
      "outputs": [],
      "stateMutability": "nonpayable",
      "type": "function"
    },
    {
      "inputs": [],
      "name": "decimals",
      "outputs": [
        {
          "internalType": "uint8",
          "name": "",
          "type": "uint8"
        }
      ],
      "stateMutability": "view",
      "type": "function"
    },
    {
      "inputs": [],
      "name": "eip712Domain",
      "outputs": [
        {
          "internalType": "bytes1",
          "name": "fields",
          "type": "bytes1"
        },
        {
          "internalType": "string",
          "name": "name",
          "type": "string"
        },
        {
          "internalType": "string",
          "name": "version",
          "type": "string"
        },
        {
          "internalType": "uint256",
          "name": "chainId",
          "type": "uint256"
        },
        {
          "internalType": "address",
          "name": "verifyingContract",
          "type": "address"
        },
        {
          "internalType": "bytes32",
          "name": "salt",
          "type": "bytes32"
        },
        {
          "internalType": "uint256[]",
          "name": "extensions",
          "type": "uint256[]"
        }
      ],
      "stateMutability": "view",
      "type": "function"
    },
    {
      "inputs": [
        {
          "internalType": "uint256",
          "name": "amount",
          "type": "uint256"
        }
      ],
      "name": "faucet",
      "outputs": [],
      "stateMutability": "nonpayable",
      "type": "function"
    },
    {
      "inputs": [
        {
          "internalType": "address",
          "name": "to",
          "type": "address"
        },
        {
          "internalType": "uint256",
          "name": "amount",
          "type": "uint256"
        }
      ],
      "name": "mint",
      "outputs": [],
      "stateMutability": "nonpayable",
      "type": "function"
    },
    {
      "inputs": [],
      "name": "name",
      "outputs": [
        {
          "internalType": "string",
          "name": "",
          "type": "string"
        }
      ],
      "stateMutability": "view",
      "type": "function"
    },
    {
      "inputs": [
        {
          "internalType": "address",
          "name": "owner",
          "type": "address"
        }
      ],
      "name": "nonces",
      "outputs": [
        {
          "internalType": "uint256",
          "name": "",
          "type": "uint256"
        }
      ],
      "stateMutability": "view",
      "type": "function"
    },
    {
      "inputs": [],
      "name": "owner",
      "outputs": [
        {
          "internalType": "address",
          "name": "",
          "type": "address"
        }
      ],
      "stateMutability": "view",
      "type": "function"
    },
    {
      "inputs": [
        {
          "internalType": "address",
          "name": "owner",
          "type": "address"
        },
        {
          "internalType": "address",
          "name": "spender",
          "type": "address"
        },
        {
          "internalType": "uint256",
          "name": "value",
          "type": "uint256"
        },
        {
          "internalType": "uint256",
          "name": "deadline",
          "type": "uint256"
        },
        {
          "internalType": "uint8",
          "name": "v",
          "type": "uint8"
        },
        {
          "internalType": "bytes32",
          "name": "r",
          "type": "bytes32"
        },
        {
          "internalType": "bytes32",
          "name": "s",
          "type": "bytes32"
        }
      ],
      "name": "permit",
      "outputs": [],
      "stateMutability": "nonpayable",
      "type": "function"
    },
    {
      "inputs": [],
      "name": "renounceOwnership",
      "outputs": [],
      "stateMutability": "nonpayable",
      "type": "function"
    },
    {
      "inputs": [],
      "name": "symbol",
      "outputs": [
        {
          "internalType": "string",
          "name": "",
          "type": "string"
        }
      ],
      "stateMutability": "view",
      "type": "function"
    },
    {
      "inputs": [],
      "name": "totalSupply",
      "outputs": [
        {
          "internalType": "uint256",
          "name": "",
          "type": "uint256"
        }
      ],
      "stateMutability": "view",
      "type": "function"
    },
    {
      "inputs": [
        {
          "internalType": "address",
          "name": "to",
          "type": "address"
        },
        {
          "internalType": "uint256",
          "name": "value",
          "type": "uint256"
        }
      ],
      "name": "transfer",
      "outputs": [
        {
          "internalType": "bool",
          "name": "",
          "type": "bool"
        }
      ],
      "stateMutability": "nonpayable",
      "type": "function"
    },
    {
      "inputs": [
        {
          "internalType": "address",
          "name": "from",
          "type": "address"
        },
        {
          "internalType": "address",
          "name": "to",
          "type": "address"
        },
        {
          "internalType": "uint256",
          "name": "value",
          "type": "uint256"
        }
      ],
      "name": "transferFrom",
      "outputs": [
        {
          "internalType": "bool",
          "name": "",
          "type": "bool"
        }
      ],
      "stateMutability": "nonpayable",
      "type": "function"
    },
    {
      "inputs": [
        {
          "internalType": "address",
          "name": "newOwner",
          "type": "address"
        }
      ],
      "name": "transferOwnership",
      "outputs": [],
      "stateMutability": "nonpayable",
      "type": "function"
    }
  ],
  "bytecode": "0x6101606040523480156200001257600080fd5b5060405162002fc238038062002fc283398181016040528101906200003891906200061e565b8084806040518060400160405280600181526020017f31000000000000000000000000000000000000000000000000000000000000008152508787816003908162000084919062000919565b50806004908162000096919062000919565b505050620000af600583620001f660201b90919060201c565b6101208181525050620000cd600682620001f660201b90919060201c565b6101408181525050818051906020012060e08181525050808051906020012061010081815250504660a081815250506200010c6200024e60201b60201c565b608081815250503073ffffffffffffffffffffffffffffffffffffffff1660c08173ffffffffffffffffffffffffffffffffffffffff1681525050505050600073ffffffffffffffffffffffffffffffffffffffff168173ffffffffffffffffffffffffffffffffffffffff1603620001bf5760006040517f1e4fbdf7000000000000000000000000000000000000000000000000000000008152600401620001b6919062000a11565b60405180910390fd5b620001d081620002ab60201b60201c565b5081600860146101000a81548160ff021916908360ff1602179055505050505062000bcf565b60006020835110156200021c5762000214836200037160201b60201c565b905062000248565b826200022e83620003de60201b60201c565b60000190816200023f919062000919565b5060ff60001b90505b92915050565b60007f8b73c3c69bb8fe3d512ecc4cf759cc79239f7b179b0ffacaa9a75d522b39400f60e0516101005146306040516020016200029095949392919062000a5a565b60405160208183030381529060405280519060200120905090565b6000600860009054906101000a900473ffffffffffffffffffffffffffffffffffffffff16905081600860006101000a81548173ffffffffffffffffffffffffffffffffffffffff021916908373ffffffffffffffffffffffffffffffffffffffff1602179055508173ffffffffffffffffffffffffffffffffffffffff168173ffffffffffffffffffffffffffffffffffffffff167f8be0079c531659141344cd1fd0a4f28419497f9722a3daafe3b4186f6b6457e060405160405180910390a35050565b600080829050601f81511115620003c157826040517f305a27a9000000000000000000000000000000000000000000000000000000008152600401620003b8919062000b09565b60405180910390fd5b805181620003cf9062000b5f565b60001c1760001b915050919050565b6000819050919050565b6000604051905090565b600080fd5b600080fd5b600080fd5b600080fd5b6000601f19601f8301169050919050565b7f4e487b7100000000000000000000000000000000000000000000000000000000600052604160045260246000fd5b620004518262000406565b810181811067ffffffffffffffff8211171562000473576200047262000417565b5b80604052505050565b600062000488620003e8565b905062000496828262000446565b919050565b600067ffffffffffffffff821115620004b957620004b862000417565b5b620004c48262000406565b9050602081019050919050565b60005b83811015620004f1578082015181840152602081019050620004d4565b60008484015250505050565b6000620005146200050e846200049b565b6200047c565b90508281526020810184848401111562000533576200053262000401565b5b62000540848285620004d1565b509392505050565b600082601f83011262000560576200055f620003fc565b5b815162000572848260208601620004fd565b91505092915050565b600060ff82169050919050565b62000593816200057b565b81146200059f57600080fd5b50565b600081519050620005b38162000588565b92915050565b600073ffffffffffffffffffffffffffffffffffffffff82169050919050565b6000620005e682620005b9565b9050919050565b620005f881620005d9565b81146200060457600080fd5b50565b6000815190506200061881620005ed565b92915050565b600080600080608085870312156200063b576200063a620003f2565b5b600085015167ffffffffffffffff8111156200065c576200065b620003f7565b5b6200066a8782880162000548565b945050602085015167ffffffffffffffff8111156200068e576200068d620003f7565b5b6200069c8782880162000548565b9350506040620006af87828801620005a2565b9250506060620006c28782880162000607565b91505092959194509250565b600081519050919050565b7f4e487b7100000000000000000000000000000000000000000000000000000000600052602260045260246000fd5b600060028204905060018216806200072157607f821691505b602082108103620007375762000736620006d9565b5b50919050565b60008190508160005260206000209050919050565b60006020601f8301049050919050565b600082821b905092915050565b600060088302620007a17fffffffffffffffffffffffffffffffffffffffffffffffffffffffffffffffff8262000762565b620007ad868362000762565b95508019841693508086168417925050509392505050565b6000819050919050565b6000819050919050565b6000620007fa620007f4620007ee84620007c5565b620007cf565b620007c5565b9050919050565b6000819050919050565b6200081683620007d9565b6200082e620008258262000801565b8484546200076f565b825550505050565b600090565b6200084562000836565b620008528184846200080b565b505050565b5b818110156200087a576200086e6000826200083b565b60018101905062000858565b5050565b601f821115620008c95762000893816200073d565b6200089e8462000752565b81016020851015620008ae578190505b620008c6620008bd8562000752565b83018262000857565b50505b505050565b600082821c905092915050565b6000620008ee60001984600802620008ce565b1980831691505092915050565b6000620009098383620008db565b9150826002028217905092915050565b6200092482620006ce565b67ffffffffffffffff81111562000940576200093f62000417565b5b6200094c825462000708565b620009598282856200087e565b600060209050601f8311600181146200099157600084156200097c578287015190505b620009888582620008fb565b865550620009f8565b601f198416620009a1866200073d565b60005b82811015620009cb57848901518255600182019150602085019450602081019050620009a4565b86831015620009eb5784890151620009e7601f891682620008db565b8355505b6001600288020188555050505b505050505050565b62000a0b81620005d9565b82525050565b600060208201905062000a28600083018462000a00565b92915050565b6000819050919050565b62000a438162000a2e565b82525050565b62000a5481620007c5565b82525050565b600060a08201905062000a71600083018862000a38565b62000a80602083018762000a38565b62000a8f604083018662000a38565b62000a9e606083018562000a49565b62000aad608083018462000a00565b9695505050505050565b600082825260208201905092915050565b600062000ad582620006ce565b62000ae1818562000ab7565b935062000af3818560208601620004d1565b62000afe8162000406565b840191505092915050565b6000602082019050818103600083015262000b25818462000ac8565b905092915050565b600081519050919050565b6000819050602082019050919050565b600062000b56825162000a2e565b80915050919050565b600062000b6c8262000b2d565b8262000b788462000b38565b905062000b858162000b48565b9250602082101562000bc85762000bc37fffffffffffffffffffffffffffffffffffffffffffffffffffffffffffffffff8360200360080262000762565b831692505b5050919050565b60805160a05160c05160e05161010051610120516101405161239862000c2a6000396000610eec01526000610eb1015260006114830152600061146201526000610bdd01526000610c3301526000610c5c01526123986000f3fe608060405234801561001057600080fd5b506004361061012c5760003560e01c8063715018a6116100ad5780639dc29fac116100715780639dc29fac14610327578063a9059cbb14610343578063d505accf14610373578063dd62ed3e1461038f578063f2fde38b146103bf5761012c565b8063715018a61461028d5780637ecebe001461029757806384b0196e146102c75780638da5cb5b146102eb57806395d89b41146103095761012c565b80633644e515116100f45780633644e515146101eb57806340c10f19146102095780635791589714610225578063685731071461024157806370a082311461025d5761012c565b806306fdde0314610131578063095ea7b31461014f57806318160ddd1461017f57806323b872dd1461019d578063313ce567146101cd575b600080fd5b6101396103db565b6040516101469190611970565b60405180910390f35b61016960048036038101906101649190611a30565b61046d565b6040516101769190611a8b565b60405180910390f35b610187610490565b6040516101949190611ab5565b60405180910390f35b6101b760048036038101906101b29190611ad0565b61049a565b6040516101c49190611a8b565b60405180910390f35b6101d56104c9565b6040516101e29190611b3f565b60405180910390f35b6101f36104e0565b6040516102009190611b73565b60405180910390f35b610223600480360381019061021e9190611a30565b6104ef565b005b61023f600480360381019061023a9190611b8e565b610505565b005b61025b60048036038101906102569190611c76565b610512565b005b61027760048036038101906102729190611cf7565b6105d4565b6040516102849190611ab5565b60405180910390f35b61029561061c565b005b6102b160048036038101906102ac9190611cf7565b610630565b6040516102be9190611ab5565b60405180910390f35b6102cf610642565b6040516102e29796959493929190611e2c565b60405180910390f35b6102f36106ec565b6040516103009190611eb0565b60405180910390f35b610311610716565b60405161031e9190611970565b60405180910390f35b610341600480360381019061033c9190611a30565b6107a8565b005b61035d60048036038101906103589190611a30565b6107be565b60405161036a9190611a8b565b60405180910390f35b61038d60048036038101906103889190611f23565b6107e1565b005b6103a960048036038101906103a49190611fc5565b610929565b6040516103b69190611ab5565b60405180910390f35b6103d960048036038101906103d49190611cf7565b6109b0565b005b6060600380546103ea90612034565b80601f016020809104026020016040519081016040528092919081815260200182805461041690612034565b80156104635780601f1061043857610100808354040283529160200191610463565b820191906000526020600020905b81548152906001019060200180831161044657829003601f168201915b5050505050905090565b600080610478610a36565b9050610485818585610a3e565b600191505092915050565b6000600254905090565b6000806104a5610a36565b90506104b2858285610a50565b6104bd858585610ae5565b60019150509392505050565b6000600860149054906101000a900460ff16905090565b60006104ea610bd9565b905090565b6104f7610c90565b6105018282610d17565b5050565b61050f3382610d17565b50565b61051a610c90565b818190508484905014610562576040517f08c379a0000000000000000000000000000000000000000000000000000000008152600401610559906120b1565b60405180910390fd5b60005b848490508110156105cd576105ba858583818110610586576105856120d1565b5b905060200201602081019061059b9190611cf7565b8484848181106105ae576105ad6120d1565b5b90506020020135610d17565b80806105c59061212f565b915050610565565b5050505050565b60008060008373ffffffffffffffffffffffffffffffffffffffff1673ffffffffffffffffffffffffffffffffffffffff168152602001908152602001600020549050919050565b610624610c90565b61062e6000610d99565b565b600061063b82610e5f565b9050919050565b600060608060008060006060610656610ea8565b61065e610ee3565b46306000801b600067ffffffffffffffff81111561067f5761067e612177565b5b6040519080825280602002602001820160405280156106ad5781602001602082028036833780820191505090505b507f0f00000000000000000000000000000000000000000000000000000000000000959493929190965096509650965096509650965090919293949596565b6000600860009054906101000a900473ffffffffffffffffffffffffffffffffffffffff16905090565b60606004805461072590612034565b80601f016020809104026020016040519081016040528092919081815260200182805461075190612034565b801561079e5780601f106107735761010080835404028352916020019161079e565b820191906000526020600020905b81548152906001019060200180831161078157829003601f168201915b5050505050905090565b6107b0610c90565b6107ba8282610f1e565b5050565b6000806107c9610a36565b90506107d6818585610ae5565b600191505092915050565b8342111561082657836040517f6279130200000000000000000000000000000000000000000000000000000000815260040161081d9190611ab5565b60405180910390fd5b60007f6e71edae12b1b97f4d1f60370fef10105fa2faae0126114a169c64845d6126c98888886108558c610fa0565b8960405160200161086b969594939291906121a6565b604051602081830303815290604052805190602001209050600061088e82610ff7565b9050600061089e82878787611011565b90508973ffffffffffffffffffffffffffffffffffffffff168173ffffffffffffffffffffffffffffffffffffffff161461091257808a6040517f4b800e46000000000000000000000000000000000000000000000000000000008152600401610909929190612207565b60405180910390fd5b61091d8a8a8a610a3e565b50505050505050505050565b6000600160008473ffffffffffffffffffffffffffffffffffffffff1673ffffffffffffffffffffffffffffffffffffffff16815260200190815260200160002060008373ffffffffffffffffffffffffffffffffffffffff1673ffffffffffffffffffffffffffffffffffffffff16815260200190815260200160002054905092915050565b6109b8610c90565b600073ffffffffffffffffffffffffffffffffffffffff168173ffffffffffffffffffffffffffffffffffffffff1603610a2a5760006040517f1e4fbdf7000000000000000000000000000000000000000000000000000000008152600401610a219190611eb0565b60405180910390fd5b610a3381610d99565b50565b600033905090565b610a4b8383836001611041565b505050565b6000610a5c8484610929565b90507fffffffffffffffffffffffffffffffffffffffffffffffffffffffffffffffff811015610adf5781811015610acf578281836040517ffb8f41b2000000000000000000000000000000000000000000000000000000008152600401610ac693929190612230565b60405180910390fd5b610ade84848484036000611041565b5b50505050565b600073ffffffffffffffffffffffffffffffffffffffff168373ffffffffffffffffffffffffffffffffffffffff1603610b575760006040517f96c6fd1e000000000000000000000000000000000000000000000000000000008152600401610b4e9190611eb0565b60405180910390fd5b600073ffffffffffffffffffffffffffffffffffffffff168273ffffffffffffffffffffffffffffffffffffffff1603610bc95760006040517fec442f05000000000000000000000000000000000000000000000000000000008152600401610bc09190611eb0565b60405180910390fd5b610bd4838383611218565b505050565b60007f000000000000000000000000000000000000000000000000000000000000000073ffffffffffffffffffffffffffffffffffffffff163073ffffffffffffffffffffffffffffffffffffffff16148015610c5557507f000000000000000000000000000000000000000000000000000000000000000046145b15610c82577f00000000000000000000000000000000000000000000000000000000000000009050610c8d565b610c8a61143d565b90505b90565b610c98610a36565b73ffffffffffffffffffffffffffffffffffffffff16610cb66106ec565b73ffffffffffffffffffffffffffffffffffffffff1614610d1557610cd9610a36565b6040517f118cdaa7000000000000000000000000000000000000000000000000000000008152600401610d0c9190611eb0565b60405180910390fd5b565b600073ffffffffffffffffffffffffffffffffffffffff168273ffffffffffffffffffffffffffffffffffffffff1603610d895760006040517fec442f05000000000000000000000000000000000000000000000000000000008152600401610d809190611eb0565b60405180910390fd5b610d9560008383611218565b5050565b6000600860009054906101000a900473ffffffffffffffffffffffffffffffffffffffff16905081600860006101000a81548173ffffffffffffffffffffffffffffffffffffffff021916908373ffffffffffffffffffffffffffffffffffffffff1602179055508173ffffffffffffffffffffffffffffffffffffffff168173ffffffffffffffffffffffffffffffffffffffff167f8be0079c531659141344cd1fd0a4f28419497f9722a3daafe3b4186f6b6457e060405160405180910390a35050565b6000600760008373ffffffffffffffffffffffffffffffffffffffff1673ffffffffffffffffffffffffffffffffffffffff168152602001908152602001600020549050919050565b6060610ede60057f00000000000000000000000000000000000000000000000000000000000000006114d390919063ffffffff16565b905090565b6060610f1960067f00000000000000000000000000000000000000000000000000000000000000006114d390919063ffffffff16565b905090565b600073ffffffffffffffffffffffffffffffffffffffff168273ffffffffffffffffffffffffffffffffffffffff1603610f905760006040517f96c6fd1e000000000000000000000000000000000000000000000000000000008152600401610f879190611eb0565b60405180910390fd5b610f9c82600083611218565b5050565b6000600760008373ffffffffffffffffffffffffffffffffffffffff1673ffffffffffffffffffffffffffffffffffffffff1681526020019081526020016000206000815480929190600101919050559050919050565b600061100a611004610bd9565b83611583565b9050919050565b600080600080611023888888886115c4565b92509250925061103382826116b8565b829350505050949350505050565b600073ffffffffffffffffffffffffffffffffffffffff168473ffffffffffffffffffffffffffffffffffffffff16036110b35760006040517fe602df050000000000000000000000000000000000000000000000000000000081526004016110aa9190611eb0565b60405180910390fd5b600073ffffffffffffffffffffffffffffffffffffffff168373ffffffffffffffffffffffffffffffffffffffff16036111255760006040517f94280d6200000000000000000000000000000000000000000000000000000000815260040161111c9190611eb0565b60405180910390fd5b81600160008673ffffffffffffffffffffffffffffffffffffffff1673ffffffffffffffffffffffffffffffffffffffff16815260200190815260200160002060008573ffffffffffffffffffffffffffffffffffffffff1673ffffffffffffffffffffffffffffffffffffffff168152602001908152602001600020819055508015611212578273ffffffffffffffffffffffffffffffffffffffff168473ffffffffffffffffffffffffffffffffffffffff167f8c5be1e5ebec7d5bd14f71427d1e84f3dd0314c0f7b2291e5b200ac8c7c3b925846040516112099190611ab5565b60405180910390a35b50505050565b600073ffffffffffffffffffffffffffffffffffffffff168373ffffffffffffffffffffffffffffffffffffffff160361126a57806002600082825461125e9190612267565b9250508190555061133d565b60008060008573ffffffffffffffffffffffffffffffffffffffff1673ffffffffffffffffffffffffffffffffffffffff168152602001908152602001600020549050818110156112f6578381836040517fe450d38c0000000000000000000000000000000000000000000000000000000081526004016112ed93929190612230565b60405180910390fd5b8181036000808673ffffffffffffffffffffffffffffffffffffffff1673ffffffffffffffffffffffffffffffffffffffff16815260200190815260200160002081905550505b600073ffffffffffffffffffffffffffffffffffffffff168273ffffffffffffffffffffffffffffffffffffffff160361138657806002600082825403925050819055506113d3565b806000808473ffffffffffffffffffffffffffffffffffffffff1673ffffffffffffffffffffffffffffffffffffffff168152602001908152602001600020600082825401925050819055505b8173ffffffffffffffffffffffffffffffffffffffff168373ffffffffffffffffffffffffffffffffffffffff167fddf252ad1be2c89b69c2b068fc378daa952ba7f163c4a11628f55a4df523b3ef836040516114309190611ab5565b60405180910390a3505050565b60007f8b73c3c69bb8fe3d512ecc4cf759cc79239f7b179b0ffacaa9a75d522b39400f7f00000000000000000000000000000000000000000000000000000000000000007f000000000000000000000000000000000000000000000000000000000000000046306040516020016114b895949392919061229b565b60405160208183030381529060405280519060200120905090565b606060ff60001b83146114f0576114e98361181c565b905061157d565b8180546114fc90612034565b80601f016020809104026020016040519081016040528092919081815260200182805461152890612034565b80156115755780601f1061154a57610100808354040283529160200191611575565b820191906000526020600020905b81548152906001019060200180831161155857829003601f168201915b505050505090505b92915050565b60006040517f190100000000000000000000000000000000000000000000000000000000000081528360028201528260228201526042812091505092915050565b60008060007f7fffffffffffffffffffffffffffffff5d576e7357a4501ddfe92f46681b20a08460001c11156116045760006003859250925092506116ae565b60006001888888886040516000815260200160405260405161162994939291906122ee565b6020604051602081039080840390855afa15801561164b573d6000803e3d6000fd5b505050602060405103519050600073ffffffffffffffffffffffffffffffffffffffff168173ffffffffffffffffffffffffffffffffffffffff160361169f57600060016000801b935093509350506116ae565b8060008060001b935093509350505b9450945094915050565b600060038111156116cc576116cb612333565b5b8260038111156116df576116de612333565b5b031561181857600160038111156116f9576116f8612333565b5b82600381111561170c5761170b612333565b5b03611743576040517ff645eedf00000000000000000000000000000000000000000000000000000000815260040160405180910390fd5b6002600381111561175757611756612333565b5b82600381111561176a57611769612333565b5b036117af578060001c6040517ffce698f70000000000000000000000000000000000000000000000000000000081526004016117a69190611ab5565b60405180910390fd5b6003808111156117c2576117c1612333565b5b8260038111156117d5576117d4612333565b5b0361181757806040517fd78bce0c00000000000000000000000000000000000000000000000000000000815260040161180e9190611b73565b60405180910390fd5b5b5050565b6060600061182983611890565b90506000602067ffffffffffffffff81111561184857611847612177565b5b6040519080825280601f01601f19166020018201604052801561187a5781602001600182028036833780820191505090505b5090508181528360208201528092505050919050565b60008060ff8360001c169050601f8111156118d7576040517fb3512b0c00000000000000000000000000000000000000000000000000000000815260040160405180910390fd5b80915050919050565b600081519050919050565b600082825260208201905092915050565b60005b8381101561191a5780820151818401526020810190506118ff565b60008484015250505050565b6000601f19601f8301169050919050565b6000611942826118e0565b61194c81856118eb565b935061195c8185602086016118fc565b61196581611926565b840191505092915050565b6000602082019050818103600083015261198a8184611937565b905092915050565b600080fd5b600080fd5b600073ffffffffffffffffffffffffffffffffffffffff82169050919050565b60006119c78261199c565b9050919050565b6119d7816119bc565b81146119e257600080fd5b50565b6000813590506119f4816119ce565b92915050565b6000819050919050565b611a0d816119fa565b8114611a1857600080fd5b50565b600081359050611a2a81611a04565b92915050565b60008060408385031215611a4757611a46611992565b5b6000611a55858286016119e5565b9250506020611a6685828601611a1b565b9150509250929050565b60008115159050919050565b611a8581611a70565b82525050565b6000602082019050611aa06000830184611a7c565b92915050565b611aaf816119fa565b82525050565b6000602082019050611aca6000830184611aa6565b92915050565b600080600060608486031215611ae957611ae8611992565b5b6000611af7868287016119e5565b9350506020611b08868287016119e5565b9250506040611b1986828701611a1b565b9150509250925092565b600060ff82169050919050565b611b3981611b23565b82525050565b6000602082019050611b546000830184611b30565b92915050565b6000819050919050565b611b6d81611b5a565b82525050565b6000602082019050611b886000830184611b64565b92915050565b600060208284031215611ba457611ba3611992565b5b6000611bb284828501611a1b565b91505092915050565b600080fd5b600080fd5b600080fd5b60008083601f840112611be057611bdf611bbb565b5b8235905067ffffffffffffffff811115611bfd57611bfc611bc0565b5b602083019150836020820283011115611c1957611c18611bc5565b5b9250929050565b60008083601f840112611c3657611c35611bbb565b5b8235905067ffffffffffffffff811115611c5357611c52611bc0565b5b602083019150836020820283011115611c6f57611c6e611bc5565b5b9250929050565b60008060008060408587031215611c9057611c8f611992565b5b600085013567ffffffffffffffff811115611cae57611cad611997565b5b611cba87828801611bca565b9450945050602085013567ffffffffffffffff811115611cdd57611cdc611997565b5b611ce987828801611c20565b925092505092959194509250565b600060208284031215611d0d57611d0c611992565b5b6000611d1b848285016119e5565b91505092915050565b60007fff0000000000000000000000000000000000000000000000000000000000000082169050919050565b611d5981611d24565b82525050565b611d68816119bc565b82525050565b600081519050919050565b600082825260208201905092915050565b6000819050602082019050919050565b611da3816119fa565b82525050565b6000611db58383611d9a565b60208301905092915050565b6000602082019050919050565b6000611dd982611d6e565b611de38185611d79565b9350611dee83611d8a565b8060005b83811015611e1f578151611e068882611da9565b9750611e1183611dc1565b925050600181019050611df2565b5085935050505092915050565b600060e082019050611e41600083018a611d50565b8181036020830152611e538189611937565b90508181036040830152611e678188611937565b9050611e766060830187611aa6565b611e836080830186611d5f565b611e9060a0830185611b64565b81810360c0830152611ea28184611dce565b905098975050505050505050565b6000602082019050611ec56000830184611d5f565b92915050565b611ed481611b23565b8114611edf57600080fd5b50565b600081359050611ef181611ecb565b92915050565b611f0081611b5a565b8114611f0b57600080fd5b50565b600081359050611f1d81611ef7565b92915050565b600080600080600080600060e0888a031215611f4257611f41611992565b5b6000611f508a828b016119e5565b9750506020611f618a828b016119e5565b9650506040611f728a828b01611a1b565b9550506060611f838a828b01611a1b565b9450506080611f948a828b01611ee2565b93505060a0611fa58a828b01611f0e565b92505060c0611fb68a828b01611f0e565b91505092959891949750929550565b60008060408385031215611fdc57611fdb611992565b5b6000611fea858286016119e5565b9250506020611ffb858286016119e5565b9150509250929050565b7f4e487b7100000000000000000000000000000000000000000000000000000000600052602260045260246000fd5b6000600282049050600182168061204c57607f821691505b60208210810361205f5761205e612005565b5b50919050565b7f417272617973206c656e677468206d69736d6174636800000000000000000000600082015250565b600061209b6016836118eb565b91506120a682612065565b602082019050919050565b600060208201905081810360008301526120ca8161208e565b9050919050565b7f4e487b7100000000000000000000000000000000000000000000000000000000600052603260045260246000fd5b7f4e487b7100000000000000000000000000000000000000000000000000000000600052601160045260246000fd5b600061213a826119fa565b91507fffffffffffffffffffffffffffffffffffffffffffffffffffffffffffffffff820361216c5761216b612100565b5b600182019050919050565b7f4e487b7100000000000000000000000000000000000000000000000000000000600052604160045260246000fd5b600060c0820190506121bb6000830189611b64565b6121c86020830188611d5f565b6121d56040830187611d5f565b6121e26060830186611aa6565b6121ef6080830185611aa6565b6121fc60a0830184611aa6565b979650505050505050565b600060408201905061221c6000830185611d5f565b6122296020830184611d5f565b9392505050565b60006060820190506122456000830186611d5f565b6122526020830185611aa6565b61225f6040830184611aa6565b949350505050565b6000612272826119fa565b915061227d836119fa565b925082820190508082111561229557612294612100565b5b92915050565b600060a0820190506122b06000830188611b64565b6122bd6020830187611b64565b6122ca6040830186611b64565b6122d76060830185611aa6565b6122e46080830184611d5f565b9695505050505050565b60006080820190506123036000830187611b64565b6123106020830186611b30565b61231d6040830185611b64565b61232a6060830184611b64565b95945050505050565b7f4e487b7100000000000000000000000000000000000000000000000000000000600052602160045260246000fdfea2646970667358221220355ede51d9e83c36dae66a2125f7e04b9d00445fd78bb5f81745ae34ea97cf4664736f6c63430008140033",
  "linkReferences": {},
  "deployedLinkReferences": {}
}