{"contracts/ScoreRegistry.sol":{"ScoreRegistry":{"abi":[{"inputs":[{"internalType":"address","name":"_savingsPool","type":"address"},{"internalType":"address","name":"_owner","type":"address"}],"stateMutability":"nonpayable","type":"constructor"},{"inputs":[],"name":"InvalidUser","type":"error"},{"inputs":[],"name":"OnlyPool","type":"error"},{"inputs":[{"internalType":"address","name":"owner","type":"address"}],"name":"OwnableInvalidOwner","type":"error"},{"inputs":[{"internalType":"address","name":"account","type":"address"}],"name":"OwnableUnauthorizedAccount","type":"error"},{"anonymous":false,"inputs":[{"indexed":true,"internalType":"address","name":"previousOwner","type":"address"},{"indexed":true,"internalType":"address","name":"newOwner","type":"address"}],"name":"OwnershipTransferred","type":"event"},{"anonymous":false,"inputs":[{"indexed":true,"internalType":"address","name":"user","type":"address"},{"indexed":false,"internalType":"uint16","name":"score","type":"uint16"},{"indexed":false,"internalType":"uint16","name":"streak","type":"uint16"},{"indexed":false,"internalType":"uint8","name":"freq30","type":"uint8"}],"name":"ScoreSet","type":"event"},{"inputs":[],"name":"FREQ_WINDOW","outputs":[{"internalType":"uint256","name":"","type":"uint256"}],"stateMutability":"view","type":"function"},{"inputs":[],"name":"GRACE_PERIOD","outputs":[{"internalType":"uint256","name":"","type":"uint256"}],"stateMutability":"view","type":"function"},{"inputs":[],"name":"MAX_SCORE","outputs":[{"internalType":"uint16","name":"","type":"uint16"}],"stateMutability":"view","type":"function"},{"inputs":[{"internalType":"address","name":"","type":"address"}],"name":"getUserFreq30","outputs":[{"internalType":"uint8","name":"","type":"uint8"}],"stateMutability":"pure","type":"function"},{"inputs":[{"internalType":"address","name":"user","type":"address"}],"name":"getUserScore","outputs":[{"internalType":"uint16","name":"","type":"uint16"}],"stateMutability":"view","type":"function"},{"inputs":[{"internalType":"address","name":"user","type":"address"}],"name":"getUserStats","outputs":[{"internalType":"uint16","name":"userScore","type":"uint16"},{"internalType":"uint16","name":"userStreak","type":"uint16"},{"internalType":"uint8","name":"freq30","type":"uint8"}],"stateMutability":"view","type":"function"},{"inputs":[{"internalType":"address","name":"user","type":"address"}],"name":"getUserStreak","outputs":[{"internalType":"uint16","name":"","type":"uint16"}],"stateMutability":"view","type":"function"},{"inputs":[{"internalType":"address","name":"","type":"address"}],"name":"lastScoredDay","outputs":[{"internalType":"uint40","name":"","type":"uint40"}],"stateMutability":"view","type":"function"},{"inputs":[],"name":"owner","outputs":[{"internalType":"address","name":"","type":"address"}],"stateMutability":"view","type":"function"},{"inputs":[],"name":"renounceOwnership","outputs":[],"stateMutability":"nonpayable","type":"function"},{"inputs":[],"name":"savingsPool","outputs":[{"internalType":"address","name":"","type":"address"}],"stateMutability":"view","type":"function"},{"inputs":[{"internalType":"address","name":"","type":"address"}],"name":"score","outputs":[{"internalType":"uint16","name":"","type":"uint16"}],"stateMutability":"view","type":"function"},{"inputs":[{"internalType":"address","name":"","type":"address"}],"name":"streakDays","outputs":[{"internalType":"uint16","name":"","type":"uint16"}],"stateMutability":"view","type":"function"},{"inputs":[{"internalType":"address","name":"newOwner","type":"address"}],"name":"transferOwnership","outputs":[],"stateMutability":"nonpayable","type":"function"},{"inputs":[{"internalType":"address","name":"user","type":"address"},{"internalType":"uint40[]","name":"userDaysFromPool","type":"uint40[]"}],"name":"updateScore","outputs":[{"internalType":"uint16","name":"newScore","type":"uint16"},{"internalType":"uint16","name":"newStreak","type":"uint16"},{"internalType":"uint8","name":"freq30","type":"uint8"}],"stateMutability":"nonpayable","type":"function"}],"evm":{"bytecode":{"linkReferences":{},"object":"60a06040523480156200001157600080fd5b50604051620015ab380380620015ab833981810160405281019062000037919062000290565b80600073ffffffffffffffffffffffffffffffffffffffff168173ffffffffffffffffffffffffffffffffffffffff1603620000ad5760006040517f1e4fbdf7000000000000000000000000000000000000000000000000000000008152600401620000a49190620002e8565b60405180910390fd5b620000be816200016260201b60201c565b50600073ffffffffffffffffffffffffffffffffffffffff168273ffffffffffffffffffffffffffffffffffffffff160362000126576040517ffd684c3b00000000000000000000000000000000000000000000000000000000815260040160405180910390fd5b8173ffffffffffffffffffffffffffffffffffffffff1660808173ffffffffffffffffffffffffffffffffffffffff1681525050505062000305565b60008060009054906101000a900473ffffffffffffffffffffffffffffffffffffffff169050816000806101000a81548173ffffffffffffffffffffffffffffffffffffffff021916908373ffffffffffffffffffffffffffffffffffffffff1602179055508173ffffffffffffffffffffffffffffffffffffffff168173ffffffffffffffffffffffffffffffffffffffff167f8be0079c531659141344cd1fd0a4f28419497f9722a3daafe3b4186f6b6457e060405160405180910390a35050565b600080fd5b600073ffffffffffffffffffffffffffffffffffffffff82169050919050565b600062000258826200022b565b9050919050565b6200026a816200024b565b81146200027657600080fd5b50565b6000815190506200028a816200025f565b92915050565b60008060408385031215620002aa57620002a962000226565b5b6000620002ba8582860162000279565b9250506020620002cd8582860162000279565b9150509250929050565b620002e2816200024b565b82525050565b6000602082019050620002ff6000830184620002d7565b92915050565b60805161128362000328600039600081816103ff01526104a701526112836000f3fe608060405234801561001057600080fd5b50600436106100f55760003560e01c806378df39a711610097578063c1a287e211610066578063c1a287e2146102a0578063c57f2dfd146102be578063d68b29fe146102ee578063f2fde38b1461031e576100f5565b806378df39a7146101f05780638da5cb5b14610220578063950f2dae1461023e578063b34e0c4714610270576100f5565b80634e43603a116100d35780634e43603a146101665780636fa0e65314610198578063715018a6146101b6578063776f3843146101c0576100f5565b806327ff6223146100fa57806348fecad2146101185780634a9359da14610136575b600080fd5b61010261033a565b60405161010f9190610ca7565b60405180910390f35b61012061033f565b60405161012d9190610cdb565b60405180910390f35b610150600480360381019061014b9190610d5e565b610346565b60405161015d9190610da7565b60405180910390f35b610180600480360381019061017b9190610d5e565b61034d565b60405161018f93929190610dc2565b60405180910390f35b6101a06103fd565b6040516101ad9190610e08565b60405180910390f35b6101be610421565b005b6101da60048036038101906101d59190610d5e565b610435565b6040516101e79190610ca7565b60405180910390f35b61020a60048036038101906102059190610d5e565b610456565b6040516102179190610ca7565b60405180910390f35b610228610477565b6040516102359190610e08565b60405180910390f35b61025860048036038101906102539190610e88565b6104a0565b60405161026793929190610dc2565b60405180910390f35b61028a60048036038101906102859190610d5e565b610769565b6040516102979190610ca7565b60405180910390f35b6102a86107c0565b6040516102b59190610cdb565b60405180910390f35b6102d860048036038101906102d39190610d5e565b6107c7565b6040516102e59190610ca7565b60405180910390f35b61030860048036038101906103039190610d5e565b61081e565b6040516103159190610f08565b60405180910390f35b61033860048036038101906103339190610d5e565b610842565b005b606481565b62278d0081565b6000919050565b6000806000600160008573ffffffffffffffffffffffffffffffffffffffff1673ffffffffffffffffffffffffffffffffffffffff16815260200190815260200160002060009054906101000a900461ffff169250600260008573ffffffffffffffffffffffffffffffffffffffff1673ffffffffffffffffffffffffffffffffffffffff16815260200190815260200160002060009054906101000a900461ffff169150600090509193909250565b7f000000000000000000000000000000000000000000000000000000000000000081565b6104296108c8565b610433600061094f565b565b60016020528060005260406000206000915054906101000a900461ffff1681565b60026020528060005260406000206000915054906101000a900461ffff1681565b60008060009054906101000a900473ffffffffffffffffffffffffffffffffffffffff16905090565b60008060007f000000000000000000000000000000000000000000000000000000000000000073ffffffffffffffffffffffffffffffffffffffff163373ffffffffffffffffffffffffffffffffffffffff161461052a576040517f4b60273500000000000000000000000000000000000000000000000000000000815260040160405180910390fd5b600073ffffffffffffffffffffffffffffffffffffffff168673ffffffffffffffffffffffffffffffffffffffff1603610590576040517ffd684c3b00000000000000000000000000000000000000000000000000000000815260040160405180910390fd5b600062015180426105a19190610f81565b90506105ae868683610a13565b91506105bc87878784610b5c565b925060008260ff1660028561ffff166105d59190610fb2565b6105df9190610ff4565b9050606461ffff1681116105f357806105f6565b60645b945084600160008a73ffffffffffffffffffffffffffffffffffffffff1673ffffffffffffffffffffffffffffffffffffffff16815260200190815260200160002060006101000a81548161ffff021916908361ffff16021790555083600260008a73ffffffffffffffffffffffffffffffffffffffff1673ffffffffffffffffffffffffffffffffffffffff16815260200190815260200160002060006101000a81548161ffff021916908361ffff16021790555081600360008a73ffffffffffffffffffffffffffffffffffffffff1673ffffffffffffffffffffffffffffffffffffffff16815260200190815260200160002060006101000a81548164ffffffffff021916908364ffffffffff1602179055508773ffffffffffffffffffffffffffffffffffffffff167fd4aa3a778f7de8988dd04fa0d6d79d3bc629ecfd224a29ed9300321606c5f80b86868660405161075693929190610dc2565b60405180910390a2505093509350939050565b6000600160008373ffffffffffffffffffffffffffffffffffffffff1673ffffffffffffffffffffffffffffffffffffffff16815260200190815260200160002060009054906101000a900461ffff169050919050565b6201fa4081565b6000600260008373ffffffffffffffffffffffffffffffffffffffff1673ffffffffffffffffffffffffffffffffffffffff16815260200190815260200160002060009054906101000a900461ffff169050919050565b60036020528060005260406000206000915054906101000a900464ffffffffff1681565b61084a6108c8565b600073ffffffffffffffffffffffffffffffffffffffff168173ffffffffffffffffffffffffffffffffffffffff16036108bc5760006040517f1e4fbdf70000000000000000000000000000000000000000000000000000000081526004016108b39190610e08565b60405180910390fd5b6108c58161094f565b50565b6108d0610c82565b73ffffffffffffffffffffffffffffffffffffffff166108ee610477565b73ffffffffffffffffffffffffffffffffffffffff161461094d57610911610c82565b6040517f118cdaa70000000000000000000000000000000000000000000000000000000081526004016109449190610e08565b60405180910390fd5b565b60008060009054906101000a900473ffffffffffffffffffffffffffffffffffffffff169050816000806101000a81548173ffffffffffffffffffffffffffffffffffffffff021916908373ffffffffffffffffffffffffffffffffffffffff1602179055508173ffffffffffffffffffffffffffffffffffffffff168173ffffffffffffffffffffffffffffffffffffffff167f8be0079c531659141344cd1fd0a4f28419497f9722a3daafe3b4186f6b6457e060405160405180910390a35050565b6000808484905003610a285760009050610b55565b60008484600187879050610a3c9190611028565b818110610a4c57610a4b61105c565b5b9050602002016020810190610a6191906110b7565b90506000601d8264ffffffffff161015610a7c576000610a8a565b601d82610a8991906110e4565b5b905060005b86869050811015610b3b578164ffffffffff16878783818110610ab557610ab461105c565b5b9050602002016020810190610aca91906110b7565b64ffffffffff1610158015610b1457508264ffffffffff16878783818110610af557610af461105c565b5b9050602002016020810190610b0a91906110b7565b64ffffffffff1611155b15610b28578380610b249061111d565b9450505b8080610b3390611146565b915050610a8f565b5060ff8360ff1611610b4d5782610b50565b60ff5b925050505b9392505050565b6000808484905003610b715760009050610c7a565b60008484600187879050610b859190611028565b818110610b9557610b9461105c565b5b9050602002016020810190610baa91906110b7565b9050600191506000600182610bbf91906110e4565b90506000600287879050610bd39190611198565b90505b60008112610c5b576000878783818110610bf357610bf261105c565b5b9050602002016020810190610c0891906110b7565b90508264ffffffffff168164ffffffffff1603610c41578480610c2a906111db565b955050600181610c3a91906110e4565b9250610c47565b50610c5b565b508080610c5390611205565b915050610bd6565b5061ffff80168361ffff1611610c715782610c75565b61ffff5b925050505b949350505050565b600033905090565b600061ffff82169050919050565b610ca181610c8a565b82525050565b6000602082019050610cbc6000830184610c98565b92915050565b6000819050919050565b610cd581610cc2565b82525050565b6000602082019050610cf06000830184610ccc565b92915050565b600080fd5b600080fd5b600073ffffffffffffffffffffffffffffffffffffffff82169050919050565b6000610d2b82610d00565b9050919050565b610d3b81610d20565b8114610d4657600080fd5b50565b600081359050610d5881610d32565b92915050565b600060208284031215610d7457610d73610cf6565b5b6000610d8284828501610d49565b91505092915050565b600060ff82169050919050565b610da181610d8b565b82525050565b6000602082019050610dbc6000830184610d98565b92915050565b6000606082019050610dd76000830186610c98565b610de46020830185610c98565b610df16040830184610d98565b949350505050565b610e0281610d20565b82525050565b6000602082019050610e1d6000830184610df9565b92915050565b600080fd5b600080fd5b600080fd5b60008083601f840112610e4857610e47610e23565b5b8235905067ffffffffffffffff811115610e6557610e64610e28565b5b602083019150836020820283011115610e8157610e80610e2d565b5b9250929050565b600080600060408486031215610ea157610ea0610cf6565b5b6000610eaf86828701610d49565b935050602084013567ffffffffffffffff811115610ed057610ecf610cfb565b5b610edc86828701610e32565b92509250509250925092565b600064ffffffffff82169050919050565b610f0281610ee8565b82525050565b6000602082019050610f1d6000830184610ef9565b92915050565b7f4e487b7100000000000000000000000000000000000000000000000000000000600052601260045260246000fd5b7f4e487b7100000000000000000000000000000000000000000000000000000000600052601160045260246000fd5b6000610f8c82610cc2565b9150610f9783610cc2565b925082610fa757610fa6610f23565b5b828204905092915050565b6000610fbd82610cc2565b9150610fc883610cc2565b9250828202610fd681610cc2565b91508282048414831517610fed57610fec610f52565b5b5092915050565b6000610fff82610cc2565b915061100a83610cc2565b925082820190508082111561102257611021610f52565b5b92915050565b600061103382610cc2565b915061103e83610cc2565b925082820390508181111561105657611055610f52565b5b92915050565b7f4e487b7100000000000000000000000000000000000000000000000000000000600052603260045260246000fd5b61109481610ee8565b811461109f57600080fd5b50565b6000813590506110b18161108b565b92915050565b6000602082840312156110cd576110cc610cf6565b5b60006110db848285016110a2565b91505092915050565b60006110ef82610ee8565b91506110fa83610ee8565b9250828203905064ffffffffff81111561111757611116610f52565b5b92915050565b600061112882610d8b565b915060ff820361113b5761113a610f52565b5b600182019050919050565b600061115182610cc2565b91507fffffffffffffffffffffffffffffffffffffffffffffffffffffffffffffffff820361118357611182610f52565b5b600182019050919050565b6000819050919050565b60006111a38261118e565b91506111ae8361118e565b92508282039050818112600084121682821360008512151617156111d5576111d4610f52565b5b92915050565b60006111e682610c8a565b915061ffff82036111fa576111f9610f52565b5b600182019050919050565b60006112108261118e565b91507f8000000000000000000000000000000000000000000000000000000000000000820361124257611241610f52565b5b60018203905091905056fea264697066735822122058f1b7ee69e4350bebeb580379d120e62f5c997fa0a18b24353fd94dafd36aa864736f6c63430008140033","opcodes":"PUSH1 0xA0 PUSH1 0x40 MSTORE CALLVALUE DUP1 ISZERO PUSH3 0x11 JUMPI PUSH1 0x0 DUP1 REVERT JUMPDEST POP PUSH1 0x40 MLOAD PUSH3 0x15AB CODESIZE SUB DUP1 PUSH3 0x15AB DUP4 CODECOPY DUP2 DUP2 ADD PUSH1 0x40 MSTORE DUP2 ADD SWAP1 PUSH3 0x37 SWAP2 SWAP1 PUSH3 0x290 JUMP JUMPDEST DUP1 PUSH1 0x0 PUSH20 0xFFFFFFFFFFFFFFFFFFFFFFFFFFFFFFFFFFFFFFFF AND DUP2 PUSH20 0xFFFFFFFFFFFFFFFFFFFFFFFFFFFFFFFFFFFFFFFF AND SUB PUSH3 0xAD JUMPI PUSH1 0x0 PUSH1 0x40 MLOAD PUSH32 0x1E4FBDF700000000000000000000000000000000000000000000000000000000 DUP2 MSTORE PUSH1 0x4 ADD PUSH3 0xA4 SWAP2 SWAP1 PUSH3 0x2E8 JUMP JUMPDEST PUSH1 0x40 MLOAD DUP1 SWAP2 SUB SWAP1 REVERT JUMPDEST PUSH3 0xBE DUP2 PUSH3 0x162 PUSH1 0x20 SHL PUSH1 0x20 SHR JUMP JUMPDEST POP PUSH1 0x0 PUSH20 0xFFFFFFFFFFFFFFFFFFFFFFFFFFFFFFFFFFFFFFFF AND DUP3 PUSH20 0xFFFFFFFFFFFFFFFFFFFFFFFFFFFFFFFFFFFFFFFF AND SUB PUSH3 0x126 JUMPI PUSH1 0x40 MLOAD PUSH32 0xFD684C3B00000000000000000000000000000000000000000000000000000000 DUP2 MSTORE PUSH1 0x4 ADD PUSH1 0x40 MLOAD DUP1 SWAP2 SUB SWAP1 REVERT JUMPDEST DUP2 PUSH20 0xFFFFFFFFFFFFFFFFFFFFFFFFFFFFFFFFFFFFFFFF AND PUSH1 0x80 DUP2 PUSH20 0xFFFFFFFFFFFFFFFFFFFFFFFFFFFFFFFFFFFFFFFF AND DUP2 MSTORE POP POP POP POP PUSH3 0x305 JUMP JUMPDEST PUSH1 0x0 DUP1 PUSH1 0x0 SWAP1 SLOAD SWAP1 PUSH2 0x100 EXP SWAP1 DIV PUSH20 0xFFFFFFFFFFFFFFFFFFFFFFFFFFFFFFFFFFFFFFFF AND SWAP1 POP DUP2 PUSH1 0x0 DUP1 PUSH2 0x100 EXP DUP2 SLOAD DUP2 PUSH20 0xFFFFFFFFFFFFFFFFFFFFFFFFFFFFFFFFFFFFFFFF MUL NOT AND SWAP1 DUP4 PUSH20 0xFFFFFFFFFFFFFFFFFFFFFFFFFFFFFFFFFFFFFFFF AND MUL OR SWAP1 SSTORE POP DUP2 PUSH20 0xFFFFFFFFFFFFFFFFFFFFFFFFFFFFFFFFFFFFFFFF AND DUP2 PUSH20 0xFFFFFFFFFFFFFFFFFFFFFFFFFFFFFFFFFFFFFFFF AND PUSH32 0x8BE0079C531659141344CD1FD0A4F28419497F9722A3DAAFE3B4186F6B6457E0 PUSH1 0x40 MLOAD PUSH1 0x40 MLOAD DUP1 SWAP2 SUB SWAP1 LOG3 POP POP JUMP JUMPDEST PUSH1 0x0 DUP1 REVERT JUMPDEST PUSH1 0x0 PUSH20 0xFFFFFFFFFFFFFFFFFFFFFFFFFFFFFFFFFFFFFFFF DUP3 AND SWAP1 POP SWAP2 SWAP1 POP JUMP JUMPDEST PUSH1 0x0 PUSH3 0x258 DUP3 PUSH3 0x22B JUMP JUMPDEST SWAP1 POP SWAP2 SWAP1 POP JUMP JUMPDEST PUSH3 0x26A DUP2 PUSH3 0x24B JUMP JUMPDEST DUP2 EQ PUSH3 0x276 JUMPI PUSH1 0x0 DUP1 REVERT JUMPDEST POP JUMP JUMPDEST PUSH1 0x0 DUP2 MLOAD SWAP1 POP PUSH3 0x28A DUP2 PUSH3 0x25F JUMP JUMPDEST SWAP3 SWAP2 POP POP JUMP JUMPDEST PUSH1 0x0 DUP1 PUSH1 0x40 DUP4 DUP6 SUB SLT ISZERO PUSH3 0x2AA JUMPI PUSH3 0x2A9 PUSH3 0x226 JUMP JUMPDEST JUMPDEST PUSH1 0x0 PUSH3 0x2BA DUP6 DUP3 DUP7 ADD PUSH3 0x279 JUMP JUMPDEST SWAP3 POP POP PUSH1 0x20 PUSH3 0x2CD DUP6 DUP3 DUP7 ADD PUSH3 0x279 JUMP JUMPDEST SWAP2 POP POP SWAP3 POP SWAP3 SWAP1 POP JUMP JUMPDEST PUSH3 0x2E2 DUP2 PUSH3 0x24B JUMP JUMPDEST DUP3 MSTORE POP POP JUMP JUMPDEST PUSH1 0x0 PUSH1 0x20 DUP3 ADD SWAP1 POP PUSH3 0x2FF PUSH1 0x0 DUP4 ADD DUP5 PUSH3 0x2D7 JUMP JUMPDEST SWAP3 SWAP2 POP POP JUMP JUMPDEST PUSH1 0x80 MLOAD PUSH2 0x1283 PUSH3 0x328 PUSH1 0x0 CODECOPY PUSH1 0x0 DUP2 DUP2 PUSH2 0x3FF ADD MSTORE PUSH2 0x4A7 ADD MSTORE PUSH2 0x1283 PUSH1 0x0 RETURN INVALID PUSH1 0x80 PUSH1 0x40 MSTORE CALLVALUE DUP1 ISZERO PUSH2 0x10 JUMPI PUSH1 0x0 DUP1 REVERT JUMPDEST POP PUSH1 0x4 CALLDATASIZE LT PUSH2 0xF5 JUMPI PUSH1 0x0 CALLDATALOAD PUSH1 0xE0 SHR DUP1 PUSH4 0x78DF39A7 GT PUSH2 0x97 JUMPI DUP1 PUSH4 0xC1A287E2 GT PUSH2 0x66 JUMPI DUP1 PUSH4 0xC1A287E2 EQ PUSH2 0x2A0 JUMPI DUP1 PUSH4 0xC57F2DFD EQ PUSH2 0x2BE JUMPI DUP1 PUSH4 0xD68B29FE EQ PUSH2 0x2EE JUMPI DUP1 PUSH4 0xF2FDE38B EQ PUSH2 0x31E JUMPI PUSH2 0xF5 JUMP JUMPDEST DUP1 PUSH4 0x78DF39A7 EQ PUSH2 0x1F0 JUMPI DUP1 PUSH4 0x8DA5CB5B EQ PUSH2 0x220 JUMPI DUP1 PUSH4 0x950F2DAE EQ PUSH2 0x23E JUMPI DUP1 PUSH4 0xB34E0C47 EQ PUSH2 0x270 JUMPI PUSH2 0xF5 JUMP JUMPDEST DUP1 PUSH4 0x4E43603A GT PUSH2 0xD3 JUMPI DUP1 PUSH4 0x4E43603A EQ PUSH2 0x166 JUMPI DUP1 PUSH4 0x6FA0E653 EQ PUSH2 0x198 JUMPI DUP1 PUSH4 0x715018A6 EQ PUSH2 0x1B6 JUMPI DUP1 PUSH4 0x776F3843 EQ PUSH2 0x1C0 JUMPI PUSH2 0xF5 JUMP JUMPDEST DUP1 PUSH4 0x27FF6223 EQ PUSH2 0xFA JUMPI DUP1 PUSH4 0x48FECAD2 EQ PUSH2 0x118 JUMPI DUP1 PUSH4 0x4A9359DA EQ PUSH2 0x136 JUMPI JUMPDEST PUSH1 0x0 DUP1 REVERT JUMPDEST PUSH2 0x102 PUSH2 0x33A JUMP JUMPDEST PUSH1 0x40 MLOAD PUSH2 0x10F SWAP2 SWAP1 PUSH2 0xCA7 JUMP JUMPDEST PUSH1 0x40 MLOAD DUP1 SWAP2 SUB SWAP1 RETURN JUMPDEST PUSH2 0x120 PUSH2 0x33F JUMP JUMPDEST PUSH1 0x40 MLOAD PUSH2 0x12D SWAP2 SWAP1 PUSH2 0xCDB JUMP JUMPDEST PUSH1 0x40 MLOAD DUP1 SWAP2 SUB SWAP1 RETURN JUMPDEST PUSH2 0x150 PUSH1 0x4 DUP1 CALLDATASIZE SUB DUP2 ADD SWAP1 PUSH2 0x14B SWAP2 SWAP1 PUSH2 0xD5E JUMP JUMPDEST PUSH2 0x346 JUMP JUMPDEST PUSH1 0x40 MLOAD PUSH2 0x15D SWAP2 SWAP1 PUSH2 0xDA7 JUMP JUMPDEST PUSH1 0x40 MLOAD DUP1 SWAP2 SUB SWAP1 RETURN JUMPDEST PUSH2 0x180 PUSH1 0x4 DUP1 CALLDATASIZE SUB DUP2 ADD SWAP1 PUSH2 0x17B SWAP2 SWAP1 PUSH2 0xD5E JUMP JUMPDEST PUSH2 0x34D JUMP JUMPDEST PUSH1 0x40 MLOAD PUSH2 0x18F SWAP4 SWAP3 SWAP2 SWAP1 PUSH2 0xDC2 JUMP JUMPDEST PUSH1 0x40 MLOAD DUP1 SWAP2 SUB SWAP1 RETURN JUMPDEST PUSH2 0x1A0 PUSH2 0x3FD JUMP JUMPDEST PUSH1 0x40 MLOAD PUSH2 0x1AD SWAP2 SWAP1 PUSH2 0xE08 JUMP JUMPDEST PUSH1 0x40 MLOAD DUP1 SWAP2 SUB SWAP1 RETURN JUMPDEST PUSH2 0x1BE PUSH2 0x421 JUMP JUMPDEST STOP JUMPDEST PUSH2 0x1DA PUSH1 0x4 DUP1 CALLDATASIZE SUB DUP2 ADD SWAP1 PUSH2 0x1D5 SWAP2 SWAP1 PUSH2 0xD5E JUMP JUMPDEST PUSH2 0x435 JUMP JUMPDEST PUSH1 0x40 MLOAD PUSH2 0x1E7 SWAP2 SWAP1 PUSH2 0xCA7 JUMP JUMPDEST PUSH1 0x40 MLOAD DUP1 SWAP2 SUB SWAP1 RETURN JUMPDEST PUSH2 0x20A PUSH1 0x4 DUP1 CALLDATASIZE SUB DUP2 ADD SWAP1 PUSH2 0x205 SWAP2 SWAP1 PUSH2 0xD5E JUMP JUMPDEST PUSH2 0x456 JUMP JUMPDEST PUSH1 0x40 MLOAD PUSH2 0x217 SWAP2 SWAP1 PUSH2 0xCA7 JUMP JUMPDEST PUSH1 0x40 MLOAD DUP1 SWAP2 SUB SWAP1 RETURN JUMPDEST PUSH2 0x228 PUSH2 0x477 JUMP JUMPDEST PUSH1 0x40 MLOAD PUSH2 0x235 SWAP2 SWAP1 PUSH2 0xE08 JUMP JUMPDEST PUSH1 0x40 MLOAD DUP1 SWAP2 SUB SWAP1 RETURN JUMPDEST PUSH2 0x258 PUSH1 0x4 DUP1 CALLDATASIZE SUB DUP2 ADD SWAP1 PUSH2 0x253 SWAP2 SWAP1 PUSH2 0xE88 JUMP JUMPDEST PUSH2 0x4A0 JUMP JUMPDEST PUSH1 0x40 MLOAD PUSH2 0x267 SWAP4 SWAP3 SWAP2 SWAP1 PUSH2 0xDC2 JUMP JUMPDEST PUSH1 0x40 MLOAD DUP1 SWAP2 SUB SWAP1 RETURN JUMPDEST PUSH2 0x28A PUSH1 0x4 DUP1 CALLDATASIZE SUB DUP2 ADD SWAP1 PUSH2 0x285 SWAP2 SWAP1 PUSH2 0xD5E JUMP JUMPDEST PUSH2 0x769 JUMP JUMPDEST PUSH1 0x40 MLOAD PUSH2 0x297 SWAP2 SWAP1 PUSH2 0xCA7 JUMP JUMPDEST PUSH1 0x40 MLOAD DUP1 SWAP2 SUB SWAP1 RETURN JUMPDEST PUSH2 0x2A8 PUSH2 0x7C0 JUMP JUMPDEST PUSH1 0x40 MLOAD PUSH2 0x2B5 SWAP2 SWAP1 PUSH2 0xCDB JUMP JUMPDEST PUSH1 0x40 MLOAD DUP1 SWAP2 SUB SWAP1 RETURN JUMPDEST PUSH2 0x2D8 PUSH1 0x4 DUP1 CALLDATASIZE SUB DUP2 ADD SWAP1 PUSH2 0x2D3 SWAP2 SWAP1 PUSH2 0xD5E JUMP JUMPDEST PUSH2 0x7C7 JUMP JUMPDEST PUSH1 0x40 MLOAD PUSH2 0x2E5 SWAP2 SWAP1 PUSH2 0xCA7 JUMP JUMPDEST PUSH1 0x40 MLOAD DUP1 SWAP2 SUB SWAP1 RETURN JUMPDEST PUSH2 0x308 PUSH1 0x4 DUP1 CALLDATASIZE SUB DUP2 ADD SWAP1 PUSH2 0x303 SWAP2 SWAP1 PUSH2 0xD5E JUMP JUMPDEST PUSH2 0x81E JUMP JUMPDEST PUSH1 0x40 MLOAD PUSH2 0x315 SWAP2 SWAP1 PUSH2 0xF08 JUMP JUMPDEST PUSH1 0x40 MLOAD DUP1 SWAP2 SUB SWAP1 RETURN JUMPDEST PUSH2 0x338 PUSH1 0x4 DUP1 CALLDATASIZE SUB DUP2 ADD SWAP1 PUSH2 0x333 SWAP2 SWAP1 PUSH2 0xD5E JUMP JUMPDEST PUSH2 0x842 JUMP JUMPDEST STOP JUMPDEST PUSH1 0x64 DUP2 JUMP JUMPDEST PUSH3 0x278D00 DUP2 JUMP JUMPDEST PUSH1 0x0 SWAP2 SWAP1 POP JUMP JUMPDEST PUSH1 0x0 DUP1 PUSH1 0x0 PUSH1 0x1 PUSH1 0x0 DUP6 PUSH20 0xFFFFFFFFFFFFFFFFFFFFFFFFFFFFFFFFFFFFFFFF AND PUSH20 0xFFFFFFFFFFFFFFFFFFFFFFFFFFFFFFFFFFFFFFFF AND DUP2 MSTORE PUSH1 0x20 ADD SWAP1 DUP2 MSTORE PUSH1 0x20 ADD PUSH1 0x0 KECCAK256 PUSH1 0x0 SWAP1 SLOAD SWAP1 PUSH2 0x100 EXP SWAP1 DIV PUSH2 0xFFFF AND SWAP3 POP PUSH1 0x2 PUSH1 0x0 DUP6 PUSH20 0xFFFFFFFFFFFFFFFFFFFFFFFFFFFFFFFFFFFFFFFF AND PUSH20 0xFFFFFFFFFFFFFFFFFFFFFFFFFFFFFFFFFFFFFFFF AND DUP2 MSTORE PUSH1 0x20 ADD SWAP1 DUP2 MSTORE PUSH1 0x20 ADD PUSH1 0x0 KECCAK256 PUSH1 0x0 SWAP1 SLOAD SWAP1 PUSH2 0x100 EXP SWAP1 DIV PUSH2 0xFFFF AND SWAP2 POP PUSH1 0x0 SWAP1 POP SWAP2 SWAP4 SWAP1 SWAP3 POP JUMP JUMPDEST PUSH32 0x0 DUP2 JUMP JUMPDEST PUSH2 0x429 PUSH2 0x8C8 JUMP JUMPDEST PUSH2 0x433 PUSH1 0x0 PUSH2 0x94F JUMP JUMPDEST JUMP JUMPDEST PUSH1 0x1 PUSH1 0x20 MSTORE DUP1 PUSH1 0x0 MSTORE PUSH1 0x40 PUSH1 0x0 KECCAK256 PUSH1 0x0 SWAP2 POP SLOAD SWAP1 PUSH2 0x100 EXP SWAP1 DIV PUSH2 0xFFFF AND DUP2 JUMP JUMPDEST PUSH1 0x2 PUSH1 0x20 MSTORE DUP1 PUSH1 0x0 MSTORE PUSH1 0x40 PUSH1 0x0 KECCAK256 PUSH1 0x0 SWAP2 POP SLOAD SWAP1 PUSH2 0x100 EXP SWAP1 DIV PUSH2 0xFFFF AND DUP2 JUMP JUMPDEST PUSH1 0x0 DUP1 PUSH1 0x0 SWAP1 SLOAD SWAP1 PUSH2 0x100 EXP SWAP1 DIV PUSH20 0xFFFFFFFFFFFFFFFFFFFFFFFFFFFFFFFFFFFFFFFF AND SWAP1 POP SWAP1 JUMP JUMPDEST PUSH1 0x0 DUP1 PUSH1 0x0 PUSH32 0x0 PUSH20 0xFFFFFFFFFFFFFFFFFFFFFFFFFFFFFFFFFFFFFFFF AND CALLER PUSH20 0xFFFFFFFFFFFFFFFFFFFFFFFFFFFFFFFFFFFFFFFF AND EQ PUSH2 0x52A JUMPI PUSH1 0x40 MLOAD PUSH32 0x4B60273500000000000000000000000000000000000000000000000000000000 DUP2 MSTORE PUSH1 0x4 ADD PUSH1 0x40 MLOAD DUP1 SWAP2 SUB SWAP1 REVERT JUMPDEST PUSH1 0x0 PUSH20 0xFFFFFFFFFFFFFFFFFFFFFFFFFFFFFFFFFFFFFFFF AND DUP7 PUSH20 0xFFFFFFFFFFFFFFFFFFFFFFFFFFFFFFFFFFFFFFFF AND SUB PUSH2 0x590 JUMPI PUSH1 0x40 MLOAD PUSH32 0xFD684C3B00000000000000000000000000000000000000000000000000000000 DUP2 MSTORE PUSH1 0x4 ADD PUSH1 0x40 MLOAD DUP1 SWAP2 SUB SWAP1 REVERT JUMPDEST PUSH1 0x0 PUSH3 0x15180 TIMESTAMP PUSH2 0x5A1 SWAP2 SWAP1 PUSH2 0xF81 JUMP JUMPDEST SWAP1 POP PUSH2 0x5AE DUP7 DUP7 DUP4 PUSH2 0xA13 JUMP JUMPDEST SWAP2 POP PUSH2 0x5BC DUP8 DUP8 DUP8 DUP5 PUSH2 0xB5C JUMP JUMPDEST SWAP3 POP PUSH1 0x0 DUP3 PUSH1 0xFF AND PUSH1 0x2 DUP6 PUSH2 0xFFFF AND PUSH2 0x5D5 SWAP2 SWAP1 PUSH2 0xFB2 JUMP JUMPDEST PUSH2 0x5DF SWAP2 SWAP1 PUSH2 0xFF4 JUMP JUMPDEST SWAP1 POP PUSH1 0x64 PUSH2 0xFFFF AND DUP2 GT PUSH2 0x5F3 JUMPI DUP1 PUSH2 0x5F6 JUMP JUMPDEST PUSH1 0x64 JUMPDEST SWAP5 POP DUP5 PUSH1 0x1 PUSH1 0x0 DUP11 PUSH20 0xFFFFFFFFFFFFFFFFFFFFFFFFFFFFFFFFFFFFFFFF AND PUSH20 0xFFFFFFFFFFFFFFFFFFFFFFFFFFFFFFFFFFFFFFFF AND DUP2 MSTORE PUSH1 0x20 ADD SWAP1 DUP2 MSTORE PUSH1 0x20 ADD PUSH1 0x0 KECCAK256 PUSH1 0x0 PUSH2 0x100 EXP DUP2 SLOAD DUP2 PUSH2 0xFFFF MUL NOT AND SWAP1 DUP4 PUSH2 0xFFFF AND MUL OR SWAP1 SSTORE POP DUP4 PUSH1 0x2 PUSH1 0x0 DUP11 PUSH20 0xFFFFFFFFFFFFFFFFFFFFFFFFFFFFFFFFFFFFFFFF AND PUSH20 0xFFFFFFFFFFFFFFFFFFFFFFFFFFFFFFFFFFFFFFFF AND DUP2 MSTORE PUSH1 0x20 ADD SWAP1 DUP2 MSTORE PUSH1 0x20 ADD PUSH1 0x0 KECCAK256 PUSH1 0x0 PUSH2 0x100 EXP DUP2 SLOAD DUP2 PUSH2 0xFFFF MUL NOT AND SWAP1 DUP4 PUSH2 0xFFFF AND MUL OR SWAP1 SSTORE POP DUP2 PUSH1 0x3 PUSH1 0x0 DUP11 PUSH20 0xFFFFFFFFFFFFFFFFFFFFFFFFFFFFFFFFFFFFFFFF AND PUSH20 0xFFFFFFFFFFFFFFFFFFFFFFFFFFFFFFFFFFFFFFFF AND DUP2 MSTORE PUSH1 0x20 ADD SWAP1 DUP2 MSTORE PUSH1 0x20 ADD PUSH1 0x0 KECCAK256 PUSH1 0x0 PUSH2 0x100 EXP DUP2 SLOAD DUP2 PUSH5 0xFFFFFFFFFF MUL NOT AND SWAP1 DUP4 PUSH5 0xFFFFFFFFFF AND MUL OR SWAP1 SSTORE POP DUP8 PUSH20 0xFFFFFFFFFFFFFFFFFFFFFFFFFFFFFFFFFFFFFFFF AND PUSH32 0xD4AA3A778F7DE8988DD04FA0D6D79D3BC629ECFD224A29ED9300321606C5F80B DUP7 DUP7 DUP7 PUSH1 0x40 MLOAD PUSH2 0x756 SWAP4 SWAP3 SWAP2 SWAP1 PUSH2 0xDC2 JUMP JUMPDEST PUSH1 0x40 MLOAD DUP1 SWAP2 SUB SWAP1 LOG2 POP POP SWAP4 POP SWAP4 POP SWAP4 SWAP1 POP JUMP JUMPDEST PUSH1 0x0 PUSH1 0x1 PUSH1 0x0 DUP4 PUSH20 0xFFFFFFFFFFFFFFFFFFFFFFFFFFFFFFFFFFFFFFFF AND PUSH20 0xFFFFFFFFFFFFFFFFFFFFFFFFFFFFFFFFFFFFFFFF AND DUP2 MSTORE PUSH1 0x20 ADD SWAP1 DUP2 MSTORE PUSH1 0x20 ADD PUSH1 0x0 KECCAK256 PUSH1 0x0 SWAP1 SLOAD SWAP1 PUSH2 0x100 EXP SWAP1 DIV PUSH2 0xFFFF AND SWAP1 POP SWAP2 SWAP1 POP JUMP JUMPDEST PUSH3 0x1FA40 DUP2 JUMP JUMPDEST PUSH1 0x0 PUSH1 0x2 PUSH1 0x0 DUP4 PUSH20 0xFFFFFFFFFFFFFFFFFFFFFFFFFFFFFFFFFFFFFFFF AND PUSH20 0xFFFFFFFFFFFFFFFFFFFFFFFFFFFFFFFFFFFFFFFF AND DUP2 MSTORE PUSH1 0x20 ADD SWAP1 DUP2 MSTORE PUSH1 0x20 ADD PUSH1 0x0 KECCAK256 PUSH1 0x0 SWAP1 SLOAD SWAP1 PUSH2 0x100 EXP SWAP1 DIV PUSH2 0xFFFF AND SWAP1 POP SWAP2 SWAP1 POP JUMP JUMPDEST PUSH1 0x3 PUSH1 0x20 MSTORE DUP1 PUSH1 0x0 MSTORE PUSH1 0x40 PUSH1 0x0 KECCAK256 PUSH1 0x0 SWAP2 POP SLOAD SWAP1 PUSH2 0x100 EXP SWAP1 DIV PUSH5 0xFFFFFFFFFF AND DUP2 JUMP JUMPDEST PUSH2 0x84A PUSH2 0x8C8 JUMP JUMPDEST PUSH1 0x0 PUSH20 0xFFFFFFFFFFFFFFFFFFFFFFFFFFFFFFFFFFFFFFFF AND DUP2 PUSH20 0xFFFFFFFFFFFFFFFFFFFFFFFFFFFFFFFFFFFFFFFF AND SUB PUSH2 0x8BC JUMPI PUSH1 0x0 PUSH1 0x40 MLOAD PUSH32 0x1E4FBDF700000000000000000000000000000000000000000000000000000000 DUP2 MSTORE PUSH1 0x4 ADD PUSH2 0x8B3 SWAP2 SWAP1 PUSH2 0xE08 JUMP JUMPDEST PUSH1 0x40 MLOAD DUP1 SWAP2 SUB SWAP1 REVERT JUMPDEST PUSH2 0x8C5 DUP2 PUSH2 0x94F JUMP JUMPDEST POP JUMP JUMPDEST PUSH2 0x8D0 PUSH2 0xC82 JUMP JUMPDEST PUSH20 0xFFFFFFFFFFFFFFFFFFFFFFFFFFFFFFFFFFFFFFFF AND PUSH2 0x8EE PUSH2 0x477 JUMP JUMPDEST PUSH20 0xFFFFFFFFFFFFFFFFFFFFFFFFFFFFFFFFFFFFFFFF AND EQ PUSH2 0x94D JUMPI PUSH2 0x911 PUSH2 0xC82 JUMP JUMPDEST PUSH1 0x40 MLOAD PUSH32 0x118CDAA700000000000000000000000000000000000000000000000000000000 DUP2 MSTORE PUSH1 0x4 ADD PUSH2 0x944 SWAP2 SWAP1 PUSH2 0xE08 JUMP JUMPDEST PUSH1 0x40 MLOAD DUP1 SWAP2 SUB SWAP1 REVERT JUMPDEST JUMP JUMPDEST PUSH1 0x0 DUP1 PUSH1 0x0 SWAP1 SLOAD SWAP1 PUSH2 0x100 EXP SWAP1 DIV PUSH20 0xFFFFFFFFFFFFFFFFFFFFFFFFFFFFFFFFFFFFFFFF AND SWAP1 POP DUP2 PUSH1 0x0 DUP1 PUSH2 0x100 EXP DUP2 SLOAD DUP2 PUSH20 0xFFFFFFFFFFFFFFFFFFFFFFFFFFFFFFFFFFFFFFFF MUL NOT AND SWAP1 DUP4 PUSH20 0xFFFFFFFFFFFFFFFFFFFFFFFFFFFFFFFFFFFFFFFF AND MUL OR SWAP1 SSTORE POP DUP2 PUSH20 0xFFFFFFFFFFFFFFFFFFFFFFFFFFFFFFFFFFFFFFFF AND DUP2 PUSH20 0xFFFFFFFFFFFFFFFFFFFFFFFFFFFFFFFFFFFFFFFF AND PUSH32 0x8BE0079C531659141344CD1FD0A4F28419497F9722A3DAAFE3B4186F6B6457E0 PUSH1 0x40 MLOAD PUSH1 0x40 MLOAD DUP1 SWAP2 SUB SWAP1 LOG3 POP POP JUMP JUMPDEST PUSH1 0x0 DUP1 DUP5 DUP5 SWAP1 POP SUB PUSH2 0xA28 JUMPI PUSH1 0x0 SWAP1 POP PUSH2 0xB55 JUMP JUMPDEST PUSH1 0x0 DUP5 DUP5 PUSH1 0x1 DUP8 DUP8 SWAP1 POP PUSH2 0xA3C SWAP2 SWAP1 PUSH2 0x1028 JUMP JUMPDEST DUP2 DUP2 LT PUSH2 0xA4C JUMPI PUSH2 0xA4B PUSH2 0x105C JUMP JUMPDEST JUMPDEST SWAP1 POP PUSH1 0x20 MUL ADD PUSH1 0x20 DUP2 ADD SWAP1 PUSH2 0xA61 SWAP2 SWAP1 PUSH2 0x10B7 JUMP JUMPDEST SWAP1 POP PUSH1 0x0 PUSH1 0x1D DUP3 PUSH5 0xFFFFFFFFFF AND LT ISZERO PUSH2 0xA7C JUMPI PUSH1 0x0 PUSH2 0xA8A JUMP JUMPDEST PUSH1 0x1D DUP3 PUSH2 0xA89 SWAP2 SWAP1 PUSH2 0x10E4 JUMP JUMPDEST JUMPDEST SWAP1 POP PUSH1 0x0 JUMPDEST DUP7 DUP7 SWAP1 POP DUP2 LT ISZERO PUSH2 0xB3B JUMPI DUP2 PUSH5 0xFFFFFFFFFF AND DUP8 DUP8 DUP4 DUP2 DUP2 LT PUSH2 0xAB5 JUMPI PUSH2 0xAB4 PUSH2 0x105C JUMP JUMPDEST JUMPDEST SWAP1 POP PUSH1 0x20 MUL ADD PUSH1 0x20 DUP2 ADD SWAP1 PUSH2 0xACA SWAP2 SWAP1 PUSH2 0x10B7 JUMP JUMPDEST PUSH5 0xFFFFFFFFFF AND LT ISZERO DUP1 ISZERO PUSH2 0xB14 JUMPI POP DUP3 PUSH5 0xFFFFFFFFFF AND DUP8 DUP8 DUP4 DUP2 DUP2 LT PUSH2 0xAF5 JUMPI PUSH2 0xAF4 PUSH2 0x105C JUMP JUMPDEST JUMPDEST SWAP1 POP PUSH1 0x20 MUL ADD PUSH1 0x20 DUP2 ADD SWAP1 PUSH2 0xB0A SWAP2 SWAP1 PUSH2 0x10B7 JUMP JUMPDEST PUSH5 0xFFFFFFFFFF AND GT ISZERO JUMPDEST ISZERO PUSH2 0xB28 JUMPI DUP4 DUP1 PUSH2 0xB24 SWAP1 PUSH2 0x111D JUMP JUMPDEST SWAP5 POP POP JUMPDEST DUP1 DUP1 PUSH2 0xB33 SWAP1 PUSH2 0x1146 JUMP JUMPDEST SWAP2 POP POP PUSH2 0xA8F JUMP JUMPDEST POP PUSH1 0xFF DUP4 PUSH1 0xFF AND GT PUSH2 0xB4D JUMPI DUP3 PUSH2 0xB50 JUMP JUMPDEST PUSH1 0xFF JUMPDEST SWAP3 POP POP POP JUMPDEST SWAP4 SWAP3 POP POP POP JUMP JUMPDEST PUSH1 0x0 DUP1 DUP5 DUP5 SWAP1 POP SUB PUSH2 0xB71 JUMPI PUSH1 0x0 SWAP1 POP PUSH2 0xC7A JUMP JUMPDEST PUSH1 0x0 DUP5 DUP5 PUSH1 0x1 DUP8 DUP8 SWAP1 POP PUSH2 0xB85 SWAP2 SWAP1 PUSH2 0x1028 JUMP JUMPDEST DUP2 DUP2 LT PUSH2 0xB95 JUMPI PUSH2 0xB94 PUSH2 0x105C JUMP JUMPDEST JUMPDEST SWAP1 POP PUSH1 0x20 MUL ADD PUSH1 0x20 DUP2 ADD SWAP1 PUSH2 0xBAA SWAP2 SWAP1 PUSH2 0x10B7 JUMP JUMPDEST SWAP1 POP PUSH1 0x1 SWAP2 POP PUSH1 0x0 PUSH1 0x1 DUP3 PUSH2 0xBBF SWAP2 SWAP1 PUSH2 0x10E4 JUMP JUMPDEST SWAP1 POP PUSH1 0x0 PUSH1 0x2 DUP8 DUP8 SWAP1 POP PUSH2 0xBD3 SWAP2 SWAP1 PUSH2 0x1198 JUMP JUMPDEST SWAP1 POP JUMPDEST PUSH1 0x0 DUP2 SLT PUSH2 0xC5B JUMPI PUSH1 0x0 DUP8 DUP8 DUP4 DUP2 DUP2 LT PUSH2 0xBF3 JUMPI PUSH2 0xBF2 PUSH2 0x105C JUMP JUMPDEST JUMPDEST SWAP1 POP PUSH1 0x20 MUL ADD PUSH1 0x20 DUP2 ADD SWAP1 PUSH2 0xC08 SWAP2 SWAP1 PUSH2 0x10B7 JUMP JUMPDEST SWAP1 POP DUP3 PUSH5 0xFFFFFFFFFF AND DUP2 PUSH5 0xFFFFFFFFFF AND SUB PUSH2 0xC41 JUMPI DUP5 DUP1 PUSH2 0xC2A SWAP1 PUSH2 0x11DB JUMP JUMPDEST SWAP6 POP POP PUSH1 0x1 DUP2 PUSH2 0xC3A SWAP2 SWAP1 PUSH2 0x10E4 JUMP JUMPDEST SWAP3 POP PUSH2 0xC47 JUMP JUMPDEST POP PUSH2 0xC5B JUMP JUMPDEST POP DUP1 DUP1 PUSH2 0xC53 SWAP1 PUSH2 0x1205 JUMP JUMPDEST SWAP2 POP POP PUSH2 0xBD6 JUMP JUMPDEST POP PUSH2 0xFFFF DUP1 AND DUP4 PUSH2 0xFFFF AND GT PUSH2 0xC71 JUMPI DUP3 PUSH2 0xC75 JUMP JUMPDEST PUSH2 0xFFFF JUMPDEST SWAP3 POP POP POP JUMPDEST SWAP5 SWAP4 POP POP POP POP JUMP JUMPDEST PUSH1 0x0 CALLER SWAP1 POP SWAP1 JUMP JUMPDEST PUSH1 0x0 PUSH2 0xFFFF DUP3 AND SWAP1 POP SWAP2 SWAP1 POP JUMP JUMPDEST PUSH2 0xCA1 DUP2 PUSH2 0xC8A JUMP JUMPDEST DUP3 MSTORE POP POP JUMP JUMPDEST PUSH1 0x0 PUSH1 0x20 DUP3 ADD SWAP1 POP PUSH2 0xCBC PUSH1 0x0 DUP4 ADD DUP5 PUSH2 0xC98 JUMP JUMPDEST SWAP3 SWAP2 POP POP JUMP JUMPDEST PUSH1 0x0 DUP2 SWAP1 POP SWAP2 SWAP1 POP JUMP JUMPDEST PUSH2 0xCD5 DUP2 PUSH2 0xCC2 JUMP JUMPDEST DUP3 MSTORE POP POP JUMP JUMPDEST PUSH1 0x0 PUSH1 0x20 DUP3 ADD SWAP1 POP PUSH2 0xCF0 PUSH1 0x0 DUP4 ADD DUP5 PUSH2 0xCCC JUMP JUMPDEST SWAP3 SWAP2 POP POP JUMP JUMPDEST PUSH1 0x0 DUP1 REVERT JUMPDEST PUSH1 0x0 DUP1 REVERT JUMPDEST PUSH1 0x0 PUSH20 0xFFFFFFFFFFFFFFFFFFFFFFFFFFFFFFFFFFFFFFFF DUP3 AND SWAP1 POP SWAP2 SWAP1 POP JUMP JUMPDEST PUSH1 0x0 PUSH2 0xD2B DUP3 PUSH2 0xD00 JUMP JUMPDEST SWAP1 POP SWAP2 SWAP1 POP JUMP JUMPDEST PUSH2 0xD3B DUP2 PUSH2 0xD20 JUMP JUMPDEST DUP2 EQ PUSH2 0xD46 JUMPI PUSH1 0x0 DUP1 REVERT JUMPDEST POP JUMP JUMPDEST PUSH1 0x0 DUP2 CALLDATALOAD SWAP1 POP PUSH2 0xD58 DUP2 PUSH2 0xD32 JUMP JUMPDEST SWAP3 SWAP2 POP POP JUMP JUMPDEST PUSH1 0x0 PUSH1 0x20 DUP3 DUP5 SUB SLT ISZERO PUSH2 0xD74 JUMPI PUSH2 0xD73 PUSH2 0xCF6 JUMP JUMPDEST JUMPDEST PUSH1 0x0 PUSH2 0xD82 DUP5 DUP3 DUP6 ADD PUSH2 0xD49 JUMP JUMPDEST SWAP2 POP POP SWAP3 SWAP2 POP POP JUMP JUMPDEST PUSH1 0x0 PUSH1 0xFF DUP3 AND SWAP1 POP SWAP2 SWAP1 POP JUMP JUMPDEST PUSH2 0xDA1 DUP2 PUSH2 0xD8B JUMP JUMPDEST DUP3 MSTORE POP POP JUMP JUMPDEST PUSH1 0x0 PUSH1 0x20 DUP3 ADD SWAP1 POP PUSH2 0xDBC PUSH1 0x0 DUP4 ADD DUP5 PUSH2 0xD98 JUMP JUMPDEST SWAP3 SWAP2 POP POP JUMP JUMPDEST PUSH1 0x0 PUSH1 0x60 DUP3 ADD SWAP1 POP PUSH2 0xDD7 PUSH1 0x0 DUP4 ADD DUP7 PUSH2 0xC98 JUMP JUMPDEST PUSH2 0xDE4 PUSH1 0x20 DUP4 ADD DUP6 PUSH2 0xC98 JUMP JUMPDEST PUSH2 0xDF1 PUSH1 0x40 DUP4 ADD DUP5 PUSH2 0xD98 JUMP JUMPDEST SWAP5 SWAP4 POP POP POP POP JUMP JUMPDEST PUSH2 0xE02 DUP2 PUSH2 0xD20 JUMP JUMPDEST DUP3 MSTORE POP POP JUMP JUMPDEST PUSH1 0x0 PUSH1 0x20 DUP3 ADD SWAP1 POP PUSH2 0xE1D PUSH1 0x0 DUP4 ADD DUP5 PUSH2 0xDF9 JUMP JUMPDEST SWAP3 SWAP2 POP POP JUMP JUMPDEST PUSH1 0x0 DUP1 REVERT JUMPDEST PUSH1 0x0 DUP1 REVERT JUMPDEST PUSH1 0x0 DUP1 REVERT JUMPDEST PUSH1 0x0 DUP1 DUP4 PUSH1 0x1F DUP5 ADD SLT PUSH2 0xE48 JUMPI PUSH2 0xE47 PUSH2 0xE23 JUMP JUMPDEST JUMPDEST DUP3 CALLDATALOAD SWAP1 POP PUSH8 0xFFFFFFFFFFFFFFFF DUP2 GT ISZERO PUSH2 0xE65 JUMPI PUSH2 0xE64 PUSH2 0xE28 JUMP JUMPDEST JUMPDEST PUSH1 0x20 DUP4 ADD SWAP2 POP DUP4 PUSH1 0x20 DUP3 MUL DUP4 ADD GT ISZERO PUSH2 0xE81 JUMPI PUSH2 0xE80 PUSH2 0xE2D JUMP JUMPDEST JUMPDEST SWAP3 POP SWAP3 SWAP1 POP JUMP JUMPDEST PUSH1 0x0 DUP1 PUSH1 0x0 PUSH1 0x40 DUP5 DUP7 SUB SLT ISZERO PUSH2 0xEA1 JUMPI PUSH2 0xEA0 PUSH2 0xCF6 JUMP JUMPDEST JUMPDEST PUSH1 0x0 PUSH2 0xEAF DUP7 DUP3 DUP8 ADD PUSH2 0xD49 JUMP JUMPDEST SWAP4 POP POP PUSH1 0x20 DUP5 ADD CALLDATALOAD PUSH8 0xFFFFFFFFFFFFFFFF DUP2 GT ISZERO PUSH2 0xED0 JUMPI PUSH2 0xECF PUSH2 0xCFB JUMP JUMPDEST JUMPDEST PUSH2 0xEDC DUP7 DUP3 DUP8 ADD PUSH2 0xE32 JUMP JUMPDEST SWAP3 POP SWAP3 POP POP SWAP3 POP SWAP3 POP SWAP3 JUMP JUMPDEST PUSH1 0x0 PUSH5 0xFFFFFFFFFF DUP3 AND SWAP1 POP SWAP2 SWAP1 POP JUMP JUMPDEST PUSH2 0xF02 DUP2 PUSH2 0xEE8 JUMP JUMPDEST DUP3 MSTORE POP POP JUMP JUMPDEST PUSH1 0x0 PUSH1 0x20 DUP3 ADD SWAP1 POP PUSH2 0xF1D PUSH1 0x0 DUP4 ADD DUP5 PUSH2 0xEF9 JUMP JUMPDEST SWAP3 SWAP2 POP POP JUMP JUMPDEST PUSH32 0x4E487B7100000000000000000000000000000000000000000000000000000000 PUSH1 0x0 MSTORE PUSH1 0x12 PUSH1 0x4 MSTORE PUSH1 0x24 PUSH1 0x0 REVERT JUMPDEST PUSH32 0x4E487B7100000000000000000000000000000000000000000000000000000000 PUSH1 0x0 MSTORE PUSH1 0x11 PUSH1 0x4 MSTORE PUSH1 0x24 PUSH1 0x0 REVERT JUMPDEST PUSH1 0x0 PUSH2 0xF8C DUP3 PUSH2 0xCC2 JUMP JUMPDEST SWAP2 POP PUSH2 0xF97 DUP4 PUSH2 0xCC2 JUMP JUMPDEST SWAP3 POP DUP3 PUSH2 0xFA7 JUMPI PUSH2 0xFA6 PUSH2 0xF23 JUMP JUMPDEST JUMPDEST DUP3 DUP3 DIV SWAP1 POP SWAP3 SWAP2 POP POP JUMP JUMPDEST PUSH1 0x0 PUSH2 0xFBD DUP3 PUSH2 0xCC2 JUMP JUMPDEST SWAP2 POP PUSH2 0xFC8 DUP4 PUSH2 0xCC2 JUMP JUMPDEST SWAP3 POP DUP3 DUP3 MUL PUSH2 0xFD6 DUP2 PUSH2 0xCC2 JUMP JUMPDEST SWAP2 POP DUP3 DUP3 DIV DUP5 EQ DUP4 ISZERO OR PUSH2 0xFED JUMPI PUSH2 0xFEC PUSH2 0xF52 JUMP JUMPDEST JUMPDEST POP SWAP3 SWAP2 POP POP JUMP JUMPDEST PUSH1 0x0 PUSH2 0xFFF DUP3 PUSH2 0xCC2 JUMP JUMPDEST SWAP2 POP PUSH2 0x100A DUP4 PUSH2 0xCC2 JUMP JUMPDEST SWAP3 POP DUP3 DUP3 ADD SWAP1 POP DUP1 DUP3 GT ISZERO PUSH2 0x1022 JUMPI PUSH2 0x1021 PUSH2 0xF52 JUMP JUMPDEST JUMPDEST SWAP3 SWAP2 POP POP JUMP JUMPDEST PUSH1 0x0 PUSH2 0x1033 DUP3 PUSH2 0xCC2 JUMP JUMPDEST SWAP2 POP PUSH2 0x103E DUP4 PUSH2 0xCC2 JUMP JUMPDEST SWAP3 POP DUP3 DUP3 SUB SWAP1 POP DUP2 DUP2 GT ISZERO PUSH2 0x1056 JUMPI PUSH2 0x1055 PUSH2 0xF52 JUMP JUMPDEST JUMPDEST SWAP3 SWAP2 POP POP JUMP JUMPDEST PUSH32 0x4E487B7100000000000000000000000000000000000000000000000000000000 PUSH1 0x0 MSTORE PUSH1 0x32 PUSH1 0x4 MSTORE PUSH1 0x24 PUSH1 0x0 REVERT JUMPDEST PUSH2 0x1094 DUP2 PUSH2 0xEE8 JUMP JUMPDEST DUP2 EQ PUSH2 0x109F JUMPI PUSH1 0x0 DUP1 REVERT JUMPDEST POP JUMP JUMPDEST PUSH1 0x0 DUP2 CALLDATALOAD SWAP1 POP PUSH2 0x10B1 DUP2 PUSH2 0x108B JUMP JUMPDEST SWAP3 SWAP2 POP POP JUMP JUMPDEST PUSH1 0x0 PUSH1 0x20 DUP3 DUP5 SUB SLT ISZERO PUSH2 0x10CD JUMPI PUSH2 0x10CC PUSH2 0xCF6 JUMP JUMPDEST JUMPDEST PUSH1 0x0 PUSH2 0x10DB DUP5 DUP3 DUP6 ADD PUSH2 0x10A2 JUMP JUMPDEST SWAP2 POP POP SWAP3 SWAP2 POP POP JUMP JUMPDEST PUSH1 0x0 PUSH2 0x10EF DUP3 PUSH2 0xEE8 JUMP JUMPDEST SWAP2 POP PUSH2 0x10FA DUP4 PUSH2 0xEE8 JUMP JUMPDEST SWAP3 POP DUP3 DUP3 SUB SWAP1 POP PUSH5 0xFFFFFFFFFF DUP2 GT ISZERO PUSH2 0x1117 JUMPI PUSH2 0x1116 PUSH2 0xF52 JUMP JUMPDEST JUMPDEST SWAP3 SWAP2 POP POP JUMP JUMPDEST PUSH1 0x0 PUSH2 0x1128 DUP3 PUSH2 0xD8B JUMP JUMPDEST SWAP2 POP PUSH1 0xFF DUP3 SUB PUSH2 0x113B JUMPI PUSH2 0x113A PUSH2 0xF52 JUMP JUMPDEST JUMPDEST PUSH1 0x1 DUP3 ADD SWAP1 POP SWAP2 SWAP1 POP JUMP JUMPDEST PUSH1 0x0 PUSH2 0x1151 DUP3 PUSH2 0xCC2 JUMP JUMPDEST SWAP2 POP PUSH32 0xFFFFFFFFFFFFFFFFFFFFFFFFFFFFFFFFFFFFFFFFFFFFFFFFFFFFFFFFFFFFFFFF DUP3 SUB PUSH2 0x1183 JUMPI PUSH2 0x1182 PUSH2 0xF52 JUMP JUMPDEST JUMPDEST PUSH1 0x1 DUP3 ADD SWAP1 POP SWAP2 SWAP1 POP JUMP JUMPDEST PUSH1 0x0 DUP2 SWAP1 POP SWAP2 SWAP1 POP JUMP JUMPDEST PUSH1 0x0 PUSH2 0x11A3 DUP3 PUSH2 0x118E JUMP JUMPDEST SWAP2 POP PUSH2 0x11AE DUP4 PUSH2 0x118E JUMP JUMPDEST SWAP3 POP DUP3 DUP3 SUB SWAP1 POP DUP2 DUP2 SLT PUSH1 0x0 DUP5 SLT AND DUP3 DUP3 SGT PUSH1 0x0 DUP6 SLT ISZERO AND OR ISZERO PUSH2 0x11D5 JUMPI PUSH2 0x11D4 PUSH2 0xF52 JUMP JUMPDEST JUMPDEST SWAP3 SWAP2 POP POP JUMP JUMPDEST PUSH1 0x0 PUSH2 0x11E6 DUP3 PUSH2 0xC8A JUMP JUMPDEST SWAP2 POP PUSH2 0xFFFF DUP3 SUB PUSH2 0x11FA JUMPI PUSH2 0x11F9 PUSH2 0xF52 JUMP JUMPDEST JUMPDEST PUSH1 0x1 DUP3 ADD SWAP1 POP SWAP2 SWAP1 POP JUMP JUMPDEST PUSH1 0x0 PUSH2 0x1210 DUP3 PUSH2 0x118E JUMP JUMPDEST SWAP2 POP PUSH32 0x8000000000000000000000000000000000000000000000000000000000000000 DUP3 SUB PUSH2 0x1242 JUMPI PUSH2 0x1241 PUSH2 0xF52 JUMP JUMPDEST JUMPDEST PUSH1 0x1 DUP3 SUB SWAP1 POP SWAP2 SWAP1 POP JUMP INVALID LOG2 PUSH5 0x6970667358 0x22 SLT KECCAK256 PC CALL 0xB7 0xEE PUSH10 0xE4350BEBEB580379D120 0xE6 0x2F 0x5C SWAP10 PUSH32 0xA0A18B24353FD94DAFD36AA864736F6C63430008140033000000000000000000 "},"methodIdentifiers":{"FREQ_WINDOW()":"48fecad2","GRACE_PERIOD()":"c1a287e2","MAX_SCORE()":"27ff6223","getUserFreq30(address)":"4a9359da","getUserScore(address)":"b34e0c47","getUserStats(address)":"4e43603a","getUserStreak(address)":"c57f2dfd","lastScoredDay(address)":"d68b29fe","owner()":"8da5cb5b","renounceOwnership()":"715018a6","savingsPool()":"6fa0e653","score(address)":"776f3843","streakDays(address)":"78df39a7","transferOwnership(address)":"f2fde38b","updateScore(address,uint40[])":"950f2dae"}}}}}