{"contracts/RewardVault.sol":{"RewardVault":{"abi":[{"inputs":[{"internalType":"address","name":"_savingsPool","type":"address"},{"internalType":"address","name":"_owner","type":"address"}],"stateMutability":"nonpayable","type":"constructor"},{"inputs":[],"name":"InsufficientPoints","type":"error"},{"inputs":[],"name":"InvalidAmount","type":"error"},{"inputs":[],"name":"OnlyPool","type":"error"},{"inputs":[{"internalType":"address","name":"owner","type":"address"}],"name":"OwnableInvalidOwner","type":"error"},{"inputs":[{"internalType":"address","name":"account","type":"address"}],"name":"OwnableUnauthorizedAccount","type":"error"},{"anonymous":false,"inputs":[{"indexed":true,"internalType":"address","name":"previousOwner","type":"address"},{"indexed":true,"internalType":"address","name":"newOwner","type":"address"}],"name":"OwnershipTransferred","type":"event"},{"anonymous":false,"inputs":[{"indexed":true,"internalType":"address","name":"user","type":"address"},{"indexed":false,"internalType":"uint256","name":"amount","type":"uint256"},{"indexed":false,"internalType":"uint16","name":"streak","type":"uint16"}],"name":"PointsAwarded","type":"event"},{"anonymous":false,"inputs":[{"indexed":true,"internalType":"address","name":"user","type":"address"},{"indexed":false,"internalType":"uint256","name":"amount","type":"uint256"}],"name":"PointsClaimed","type":"event"},{"inputs":[],"name":"POINTS_PER_DEPOSIT","outputs":[{"internalType":"uint256","name":"","type":"uint256"}],"stateMutability":"view","type":"function"},{"inputs":[],"name":"STREAK_BONUS_POINTS","outputs":[{"internalType":"uint256","name":"","type":"uint256"}],"stateMutability":"view","type":"function"},{"inputs":[],"name":"STREAK_MILESTONE","outputs":[{"internalType":"uint256","name":"","type":"uint256"}],"stateMutability":"view","type":"function"},{"inputs":[{"internalType":"uint256","name":"amount","type":"uint256"}],"name":"claimPoints","outputs":[],"stateMutability":"nonpayable","type":"function"},{"inputs":[{"internalType":"address","name":"user","type":"address"}],"name":"getPoints","outputs":[{"internalType":"uint256","name":"","type":"uint256"}],"stateMutability":"view","type":"function"},{"inputs":[{"internalType":"address","name":"user","type":"address"},{"internalType":"uint16","name":"streak","type":"uint16"}],"name":"onDepositDay","outputs":[],"stateMutability":"nonpayable","type":"function"},{"inputs":[],"name":"owner","outputs":[{"internalType":"address","name":"","type":"address"}],"stateMutability":"view","type":"function"},{"inputs":[{"internalType":"address","name":"","type":"address"}],"name":"points","outputs":[{"internalType":"uint256","name":"","type":"uint256"}],"stateMutability":"view","type":"function"},{"inputs":[],"name":"renounceOwnership","outputs":[],"stateMutability":"nonpayable","type":"function"},{"inputs":[],"name":"savingsPool","outputs":[{"internalType":"address","name":"","type":"address"}],"stateMutability":"view","type":"function"},{"inputs":[{"internalType":"address","name":"newOwner","type":"address"}],"name":"transferOwnership","outputs":[],"stateMutability":"nonpayable","type":"function"}],"evm":{"bytecode":{"linkReferences":{},"object":"60a06040523480156200001157600080fd5b5060405162000dec38038062000dec833981810160405281019062000037919062000290565b80600073ffffffffffffffffffffffffffffffffffffffff168173ffffffffffffffffffffffffffffffffffffffff1603620000ad5760006040517f1e4fbdf7000000000000000000000000000000000000000000000000000000008152600401620000a49190620002e8565b60405180910390fd5b620000be816200016260201b60201c565b50600073ffffffffffffffffffffffffffffffffffffffff168273ffffffffffffffffffffffffffffffffffffffff160362000126576040517f4b60273500000000000000000000000000000000000000000000000000000000815260040160405180910390fd5b8173ffffffffffffffffffffffffffffffffffffffff1660808173ffffffffffffffffffffffffffffffffffffffff1681525050505062000305565b60008060009054906101000a900473ffffffffffffffffffffffffffffffffffffffff169050816000806101000a81548173ffffffffffffffffffffffffffffffffffffffff021916908373ffffffffffffffffffffffffffffffffffffffff1602179055508173ffffffffffffffffffffffffffffffffffffffff168173ffffffffffffffffffffffffffffffffffffffff167f8be0079c531659141344cd1fd0a4f28419497f9722a3daafe3b4186f6b6457e060405160405180910390a35050565b600080fd5b600073ffffffffffffffffffffffffffffffffffffffff82169050919050565b600062000258826200022b565b9050919050565b6200026a816200024b565b81146200027657600080fd5b50565b6000815190506200028a816200025f565b92915050565b60008060408385031215620002aa57620002a962000226565b5b6000620002ba8582860162000279565b9250506020620002cd8582860162000279565b9150509250929050565b620002e2816200024b565b82525050565b6000602082019050620002ff6000830184620002d7565b92915050565b608051610ac4620003286000396000818161037701526103dd0152610ac46000f3fe608060405234801561001057600080fd5b50600436106100a95760003560e01c8063715018a611610071578063715018a6146101545780637fc842fe1461015e5780638da5cb5b1461017c578063b0fb56641461019a578063ee204abb146101b6578063f2fde38b146101e6576100a9565b8063358b8166146100ae5780633ac795de146100de57806341d7b1d3146100fa5780635e9cb48e146101185780636fa0e65314610136575b600080fd5b6100c860048036038101906100c39190610835565b610202565b6040516100d5919061087b565b60405180910390f35b6100f860048036038101906100f391906108c2565b61021a565b005b61010261036b565b60405161010f919061087b565b60405180910390f35b610120610370565b60405161012d919061087b565b60405180910390f35b61013e610375565b60405161014b91906108fe565b60405180910390f35b61015c610399565b005b6101666103ad565b604051610173919061087b565b60405180910390f35b6101846103b2565b60405161019191906108fe565b60405180910390f35b6101b460048036038101906101af9190610953565b6103db565b005b6101d060048036038101906101cb9190610835565b6105b0565b6040516101dd919061087b565b60405180910390f35b61020060048036038101906101fb9190610835565b6105f9565b005b60016020528060005260406000206000915090505481565b60008103610254576040517f2c5211c600000000000000000000000000000000000000000000000000000000815260040160405180910390fd5b80600160003373ffffffffffffffffffffffffffffffffffffffff1673ffffffffffffffffffffffffffffffffffffffff1681526020019081526020016000205410156102cd576040517f303e7a0700000000000000000000000000000000000000000000000000000000815260040160405180910390fd5b80600160003373ffffffffffffffffffffffffffffffffffffffff1673ffffffffffffffffffffffffffffffffffffffff168152602001908152602001600020600082825403925050819055503373ffffffffffffffffffffffffffffffffffffffff167fba953728785de35be3827ee7a7a7867a8472947562602939440e6c0bdbf4725e82604051610360919061087b565b60405180910390a250565b600581565b601481565b7f000000000000000000000000000000000000000000000000000000000000000081565b6103a161067f565b6103ab6000610706565b565b600781565b60008060009054906101000a900473ffffffffffffffffffffffffffffffffffffffff16905090565b7f000000000000000000000000000000000000000000000000000000000000000073ffffffffffffffffffffffffffffffffffffffff163373ffffffffffffffffffffffffffffffffffffffff1614610460576040517f4b60273500000000000000000000000000000000000000000000000000000000815260040160405180910390fd5b600073ffffffffffffffffffffffffffffffffffffffff168273ffffffffffffffffffffffffffffffffffffffff16036104c6576040517f2c5211c600000000000000000000000000000000000000000000000000000000815260040160405180910390fd5b60006005905060008261ffff161180156104f05750600060078361ffff166104ee91906109c2565b145b15610505576014816105029190610a22565b90505b80600160008573ffffffffffffffffffffffffffffffffffffffff1673ffffffffffffffffffffffffffffffffffffffff16815260200190815260200160002060008282546105549190610a22565b925050819055508273ffffffffffffffffffffffffffffffffffffffff167f81ecaaa31e69fc17832354b83912ed393c78921b2e6fcf355113f2fb513e4f9982846040516105a3929190610a65565b60405180910390a2505050565b6000600160008373ffffffffffffffffffffffffffffffffffffffff1673ffffffffffffffffffffffffffffffffffffffff168152602001908152602001600020549050919050565b61060161067f565b600073ffffffffffffffffffffffffffffffffffffffff168173ffffffffffffffffffffffffffffffffffffffff16036106735760006040517f1e4fbdf700000000000000000000000000000000000000000000000000000000815260040161066a91906108fe565b60405180910390fd5b61067c81610706565b50565b6106876107ca565b73ffffffffffffffffffffffffffffffffffffffff166106a56103b2565b73ffffffffffffffffffffffffffffffffffffffff1614610704576106c86107ca565b6040517f118cdaa70000000000000000000000000000000000000000000000000000000081526004016106fb91906108fe565b60405180910390fd5b565b60008060009054906101000a900473ffffffffffffffffffffffffffffffffffffffff169050816000806101000a81548173ffffffffffffffffffffffffffffffffffffffff021916908373ffffffffffffffffffffffffffffffffffffffff1602179055508173ffffffffffffffffffffffffffffffffffffffff168173ffffffffffffffffffffffffffffffffffffffff167f8be0079c531659141344cd1fd0a4f28419497f9722a3daafe3b4186f6b6457e060405160405180910390a35050565b600033905090565b600080fd5b600073ffffffffffffffffffffffffffffffffffffffff82169050919050565b6000610802826107d7565b9050919050565b610812816107f7565b811461081d57600080fd5b50565b60008135905061082f81610809565b92915050565b60006020828403121561084b5761084a6107d2565b5b600061085984828501610820565b91505092915050565b6000819050919050565b61087581610862565b82525050565b6000602082019050610890600083018461086c565b92915050565b61089f81610862565b81146108aa57600080fd5b50565b6000813590506108bc81610896565b92915050565b6000602082840312156108d8576108d76107d2565b5b60006108e6848285016108ad565b91505092915050565b6108f8816107f7565b82525050565b600060208201905061091360008301846108ef565b92915050565b600061ffff82169050919050565b61093081610919565b811461093b57600080fd5b50565b60008135905061094d81610927565b92915050565b6000806040838503121561096a576109696107d2565b5b600061097885828601610820565b92505060206109898582860161093e565b9150509250929050565b7f4e487b7100000000000000000000000000000000000000000000000000000000600052601260045260246000fd5b60006109cd82610862565b91506109d883610862565b9250826109e8576109e7610993565b5b828206905092915050565b7f4e487b7100000000000000000000000000000000000000000000000000000000600052601160045260246000fd5b6000610a2d82610862565b9150610a3883610862565b9250828201905080821115610a5057610a4f6109f3565b5b92915050565b610a5f81610919565b82525050565b6000604082019050610a7a600083018561086c565b610a876020830184610a56565b939250505056fea26469706673582212204f161ed40b782692045ed9cc38043e76a7e81d2c9dc46688d77885cc3671d08f64736f6c63430008140033","opcodes":"PUSH1 0xA0 PUSH1 0x40 MSTORE CALLVALUE DUP1 ISZERO PUSH3 0x11 JUMPI PUSH1 0x0 DUP1 REVERT JUMPDEST POP PUSH1 0x40 MLOAD PUSH3 0xDEC CODESIZE SUB DUP1 PUSH3 0xDEC DUP4 CODECOPY DUP2 DUP2 ADD PUSH1 0x40 MSTORE DUP2 ADD SWAP1 PUSH3 0x37 SWAP2 SWAP1 PUSH3 0x290 JUMP JUMPDEST DUP1 PUSH1 0x0 PUSH20 0xFFFFFFFFFFFFFFFFFFFFFFFFFFFFFFFFFFFFFFFF AND DUP2 PUSH20 0xFFFFFFFFFFFFFFFFFFFFFFFFFFFFFFFFFFFFFFFF AND SUB PUSH3 0xAD JUMPI PUSH1 0x0 PUSH1 0x40 MLOAD PUSH32 0x1E4FBDF700000000000000000000000000000000000000000000000000000000 DUP2 MSTORE PUSH1 0x4 ADD PUSH3 0xA4 SWAP2 SWAP1 PUSH3 0x2E8 JUMP JUMPDEST PUSH1 0x40 MLOAD DUP1 SWAP2 SUB SWAP1 REVERT JUMPDEST PUSH3 0xBE DUP2 PUSH3 0x162 PUSH1 0x20 SHL PUSH1 0x20 SHR JUMP JUMPDEST POP PUSH1 0x0 PUSH20 0xFFFFFFFFFFFFFFFFFFFFFFFFFFFFFFFFFFFFFFFF AND DUP3 PUSH20 0xFFFFFFFFFFFFFFFFFFFFFFFFFFFFFFFFFFFFFFFF AND SUB PUSH3 0x126 JUMPI PUSH1 0x40 MLOAD PUSH32 0x4B60273500000000000000000000000000000000000000000000000000000000 DUP2 MSTORE PUSH1 0x4 ADD PUSH1 0x40 MLOAD DUP1 SWAP2 SUB SWAP1 REVERT JUMPDEST DUP2 PUSH20 0xFFFFFFFFFFFFFFFFFFFFFFFFFFFFFFFFFFFFFFFF AND PUSH1 0x80 DUP2 PUSH20 0xFFFFFFFFFFFFFFFFFFFFFFFFFFFFFFFFFFFFFFFF AND DUP2 MSTORE POP POP POP POP PUSH3 0x305 JUMP JUMPDEST PUSH1 0x0 DUP1 PUSH1 0x0 SWAP1 SLOAD SWAP1 PUSH2 0x100 EXP SWAP1 DIV PUSH20 0xFFFFFFFFFFFFFFFFFFFFFFFFFFFFFFFFFFFFFFFF AND SWAP1 POP DUP2 PUSH1 0x0 DUP1 PUSH2 0x100 EXP DUP2 SLOAD DUP2 PUSH20 0xFFFFFFFFFFFFFFFFFFFFFFFFFFFFFFFFFFFFFFFF MUL NOT AND SWAP1 DUP4 PUSH20 0xFFFFFFFFFFFFFFFFFFFFFFFFFFFFFFFFFFFFFFFF AND MUL OR SWAP1 SSTORE POP DUP2 PUSH20 0xFFFFFFFFFFFFFFFFFFFFFFFFFFFFFFFFFFFFFFFF AND DUP2 PUSH20 0xFFFFFFFFFFFFFFFFFFFFFFFFFFFFFFFFFFFFFFFF AND PUSH32 0x8BE0079C531659141344CD1FD0A4F28419497F9722A3DAAFE3B4186F6B6457E0 PUSH1 0x40 MLOAD PUSH1 0x40 MLOAD DUP1 SWAP2 SUB SWAP1 LOG3 POP POP JUMP JUMPDEST PUSH1 0x0 DUP1 REVERT JUMPDEST PUSH1 0x0 PUSH20 0xFFFFFFFFFFFFFFFFFFFFFFFFFFFFFFFFFFFFFFFF DUP3 AND SWAP1 POP SWAP2 SWAP1 POP JUMP JUMPDEST PUSH1 0x0 PUSH3 0x258 DUP3 PUSH3 0x22B JUMP JUMPDEST SWAP1 POP SWAP2 SWAP1 POP JUMP JUMPDEST PUSH3 0x26A DUP2 PUSH3 0x24B JUMP JUMPDEST DUP2 EQ PUSH3 0x276 JUMPI PUSH1 0x0 DUP1 REVERT JUMPDEST POP JUMP JUMPDEST PUSH1 0x0 DUP2 MLOAD SWAP1 POP PUSH3 0x28A DUP2 PUSH3 0x25F JUMP JUMPDEST SWAP3 SWAP2 POP POP JUMP JUMPDEST PUSH1 0x0 DUP1 PUSH1 0x40 DUP4 DUP6 SUB SLT ISZERO PUSH3 0x2AA JUMPI PUSH3 0x2A9 PUSH3 0x226 JUMP JUMPDEST JUMPDEST PUSH1 0x0 PUSH3 0x2BA DUP6 DUP3 DUP7 ADD PUSH3 0x279 JUMP JUMPDEST SWAP3 POP POP PUSH1 0x20 PUSH3 0x2CD DUP6 DUP3 DUP7 ADD PUSH3 0x279 JUMP JUMPDEST SWAP2 POP POP SWAP3 POP SWAP3 SWAP1 POP JUMP JUMPDEST PUSH3 0x2E2 DUP2 PUSH3 0x24B JUMP JUMPDEST DUP3 MSTORE POP POP JUMP JUMPDEST PUSH1 0x0 PUSH1 0x20 DUP3 ADD SWAP1 POP PUSH3 0x2FF PUSH1 0x0 DUP4 ADD DUP5 PUSH3 0x2D7 JUMP JUMPDEST SWAP3 SWAP2 POP POP JUMP JUMPDEST PUSH1 0x80 MLOAD PUSH2 0xAC4 PUSH3 0x328 PUSH1 0x0 CODECOPY PUSH1 0x0 DUP2 DUP2 PUSH2 0x377 ADD MSTORE PUSH2 0x3DD ADD MSTORE PUSH2 0xAC4 PUSH1 0x0 RETURN INVALID PUSH1 0x80 PUSH1 0x40 MSTORE CALLVALUE DUP1 ISZERO PUSH2 0x10 JUMPI PUSH1 0x0 DUP1 REVERT JUMPDEST POP PUSH1 0x4 CALLDATASIZE LT PUSH2 0xA9 JUMPI PUSH1 0x0 CALLDATALOAD PUSH1 0xE0 SHR DUP1 PUSH4 0x715018A6 GT PUSH2 0x71 JUMPI DUP1 PUSH4 0x715018A6 EQ PUSH2 0x154 JUMPI DUP1 PUSH4 0x7FC842FE EQ PUSH2 0x15E JUMPI DUP1 PUSH4 0x8DA5CB5B EQ PUSH2 0x17C JUMPI DUP1 PUSH4 0xB0FB5664 EQ PUSH2 0x19A JUMPI DUP1 PUSH4 0xEE204ABB EQ PUSH2 0x1B6 JUMPI DUP1 PUSH4 0xF2FDE38B EQ PUSH2 0x1E6 JUMPI PUSH2 0xA9 JUMP JUMPDEST DUP1 PUSH4 0x358B8166 EQ PUSH2 0xAE JUMPI DUP1 PUSH4 0x3AC795DE EQ PUSH2 0xDE JUMPI DUP1 PUSH4 0x41D7B1D3 EQ PUSH2 0xFA JUMPI DUP1 PUSH4 0x5E9CB48E EQ PUSH2 0x118 JUMPI DUP1 PUSH4 0x6FA0E653 EQ PUSH2 0x136 JUMPI JUMPDEST PUSH1 0x0 DUP1 REVERT JUMPDEST PUSH2 0xC8 PUSH1 0x4 DUP1 CALLDATASIZE SUB DUP2 ADD SWAP1 PUSH2 0xC3 SWAP2 SWAP1 PUSH2 0x835 JUMP JUMPDEST PUSH2 0x202 JUMP JUMPDEST PUSH1 0x40 MLOAD PUSH2 0xD5 SWAP2 SWAP1 PUSH2 0x87B JUMP JUMPDEST PUSH1 0x40 MLOAD DUP1 SWAP2 SUB SWAP1 RETURN JUMPDEST PUSH2 0xF8 PUSH1 0x4 DUP1 CALLDATASIZE SUB DUP2 ADD SWAP1 PUSH2 0xF3 SWAP2 SWAP1 PUSH2 0x8C2 JUMP JUMPDEST PUSH2 0x21A JUMP JUMPDEST STOP JUMPDEST PUSH2 0x102 PUSH2 0x36B JUMP JUMPDEST PUSH1 0x40 MLOAD PUSH2 0x10F SWAP2 SWAP1 PUSH2 0x87B JUMP JUMPDEST PUSH1 0x40 MLOAD DUP1 SWAP2 SUB SWAP1 RETURN JUMPDEST PUSH2 0x120 PUSH2 0x370 JUMP JUMPDEST PUSH1 0x40 MLOAD PUSH2 0x12D SWAP2 SWAP1 PUSH2 0x87B JUMP JUMPDEST PUSH1 0x40 MLOAD DUP1 SWAP2 SUB SWAP1 RETURN JUMPDEST PUSH2 0x13E PUSH2 0x375 JUMP JUMPDEST PUSH1 0x40 MLOAD PUSH2 0x14B SWAP2 SWAP1 PUSH2 0x8FE JUMP JUMPDEST PUSH1 0x40 MLOAD DUP1 SWAP2 SUB SWAP1 RETURN JUMPDEST PUSH2 0x15C PUSH2 0x399 JUMP JUMPDEST STOP JUMPDEST PUSH2 0x166 PUSH2 0x3AD JUMP JUMPDEST PUSH1 0x40 MLOAD PUSH2 0x173 SWAP2 SWAP1 PUSH2 0x87B JUMP JUMPDEST PUSH1 0x40 MLOAD DUP1 SWAP2 SUB SWAP1 RETURN JUMPDEST PUSH2 0x184 PUSH2 0x3B2 JUMP JUMPDEST PUSH1 0x40 MLOAD PUSH2 0x191 SWAP2 SWAP1 PUSH2 0x8FE JUMP JUMPDEST PUSH1 0x40 MLOAD DUP1 SWAP2 SUB SWAP1 RETURN JUMPDEST PUSH2 0x1B4 PUSH1 0x4 DUP1 CALLDATASIZE SUB DUP2 ADD SWAP1 PUSH2 0x1AF SWAP2 SWAP1 PUSH2 0x953 JUMP JUMPDEST PUSH2 0x3DB JUMP JUMPDEST STOP JUMPDEST PUSH2 0x1D0 PUSH1 0x4 DUP1 CALLDATASIZE SUB DUP2 ADD SWAP1 PUSH2 0x1CB SWAP2 SWAP1 PUSH2 0x835 JUMP JUMPDEST PUSH2 0x5B0 JUMP JUMPDEST PUSH1 0x40 MLOAD PUSH2 0x1DD SWAP2 SWAP1 PUSH2 0x87B JUMP JUMPDEST PUSH1 0x40 MLOAD DUP1 SWAP2 SUB SWAP1 RETURN JUMPDEST PUSH2 0x200 PUSH1 0x4 DUP1 CALLDATASIZE SUB DUP2 ADD SWAP1 PUSH2 0x1FB SWAP2 SWAP1 PUSH2 0x835 JUMP JUMPDEST PUSH2 0x5F9 JUMP JUMPDEST STOP JUMPDEST PUSH1 0x1 PUSH1 0x20 MSTORE DUP1 PUSH1 0x0 MSTORE PUSH1 0x40 PUSH1 0x0 KECCAK256 PUSH1 0x0 SWAP2 POP SWAP1 POP SLOAD DUP2 JUMP JUMPDEST PUSH1 0x0 DUP2 SUB PUSH2 0x254 JUMPI PUSH1 0x40 MLOAD PUSH32 0x2C5211C600000000000000000000000000000000000000000000000000000000 DUP2 MSTORE PUSH1 0x4 ADD PUSH1 0x40 MLOAD DUP1 SWAP2 SUB SWAP1 REVERT JUMPDEST DUP1 PUSH1 0x1 PUSH1 0x0 CALLER PUSH20 0xFFFFFFFFFFFFFFFFFFFFFFFFFFFFFFFFFFFFFFFF AND PUSH20 0xFFFFFFFFFFFFFFFFFFFFFFFFFFFFFFFFFFFFFFFF AND DUP2 MSTORE PUSH1 0x20 ADD SWAP1 DUP2 MSTORE PUSH1 0x20 ADD PUSH1 0x0 KECCAK256 SLOAD LT ISZERO PUSH2 0x2CD JUMPI PUSH1 0x40 MLOAD PUSH32 0x303E7A0700000000000000000000000000000000000000000000000000000000 DUP2 MSTORE PUSH1 0x4 ADD PUSH1 0x40 MLOAD DUP1 SWAP2 SUB SWAP1 REVERT JUMPDEST DUP1 PUSH1 0x1 PUSH1 0x0 CALLER PUSH20 0xFFFFFFFFFFFFFFFFFFFFFFFFFFFFFFFFFFFFFFFF AND PUSH20 0xFFFFFFFFFFFFFFFFFFFFFFFFFFFFFFFFFFFFFFFF AND DUP2 MSTORE PUSH1 0x20 ADD SWAP1 DUP2 MSTORE PUSH1 0x20 ADD PUSH1 0x0 KECCAK256 PUSH1 0x0 DUP3 DUP3 SLOAD SUB SWAP3 POP POP DUP2 SWAP1 SSTORE POP CALLER PUSH20 0xFFFFFFFFFFFFFFFFFFFFFFFFFFFFFFFFFFFFFFFF AND PUSH32 0xBA953728785DE35BE3827EE7A7A7867A8472947562602939440E6C0BDBF4725E DUP3 PUSH1 0x40 MLOAD PUSH2 0x360 SWAP2 SWAP1 PUSH2 0x87B JUMP JUMPDEST PUSH1 0x40 MLOAD DUP1 SWAP2 SUB SWAP1 LOG2 POP JUMP JUMPDEST PUSH1 0x5 DUP2 JUMP JUMPDEST PUSH1 0x14 DUP2 JUMP JUMPDEST PUSH32 0x0 DUP2 JUMP JUMPDEST PUSH2 0x3A1 PUSH2 0x67F JUMP JUMPDEST PUSH2 0x3AB PUSH1 0x0 PUSH2 0x706 JUMP JUMPDEST JUMP JUMPDEST PUSH1 0x7 DUP2 JUMP JUMPDEST PUSH1 0x0 DUP1 PUSH1 0x0 SWAP1 SLOAD SWAP1 PUSH2 0x100 EXP SWAP1 DIV PUSH20 0xFFFFFFFFFFFFFFFFFFFFFFFFFFFFFFFFFFFFFFFF AND SWAP1 POP SWAP1 JUMP JUMPDEST PUSH32 0x0 PUSH20 0xFFFFFFFFFFFFFFFFFFFFFFFFFFFFFFFFFFFFFFFF AND CALLER PUSH20 0xFFFFFFFFFFFFFFFFFFFFFFFFFFFFFFFFFFFFFFFF AND EQ PUSH2 0x460 JUMPI PUSH1 0x40 MLOAD PUSH32 0x4B60273500000000000000000000000000000000000000000000000000000000 DUP2 MSTORE PUSH1 0x4 ADD PUSH1 0x40 MLOAD DUP1 SWAP2 SUB SWAP1 REVERT JUMPDEST PUSH1 0x0 PUSH20 0xFFFFFFFFFFFFFFFFFFFFFFFFFFFFFFFFFFFFFFFF AND DUP3 PUSH20 0xFFFFFFFFFFFFFFFFFFFFFFFFFFFFFFFFFFFFFFFF AND SUB PUSH2 0x4C6 JUMPI PUSH1 0x40 MLOAD PUSH32 0x2C5211C600000000000000000000000000000000000000000000000000000000 DUP2 MSTORE PUSH1 0x4 ADD PUSH1 0x40 MLOAD DUP1 SWAP2 SUB SWAP1 REVERT JUMPDEST PUSH1 0x0 PUSH1 0x5 SWAP1 POP PUSH1 0x0 DUP3 PUSH2 0xFFFF AND GT DUP1 ISZERO PUSH2 0x4F0 JUMPI POP PUSH1 0x0 PUSH1 0x7 DUP4 PUSH2 0xFFFF AND PUSH2 0x4EE SWAP2 SWAP1 PUSH2 0x9C2 JUMP JUMPDEST EQ JUMPDEST ISZERO PUSH2 0x505 JUMPI PUSH1 0x14 DUP2 PUSH2 0x502 SWAP2 SWAP1 PUSH2 0xA22 JUMP JUMPDEST SWAP1 POP JUMPDEST DUP1 PUSH1 0x1 PUSH1 0x0 DUP6 PUSH20 0xFFFFFFFFFFFFFFFFFFFFFFFFFFFFFFFFFFFFFFFF AND PUSH20 0xFFFFFFFFFFFFFFFFFFFFFFFFFFFFFFFFFFFFFFFF AND DUP2 MSTORE PUSH1 0x20 ADD SWAP1 DUP2 MSTORE PUSH1 0x20 ADD PUSH1 0x0 KECCAK256 PUSH1 0x0 DUP3 DUP3 SLOAD PUSH2 0x554 SWAP2 SWAP1 PUSH2 0xA22 JUMP JUMPDEST SWAP3 POP POP DUP2 SWAP1 SSTORE POP DUP3 PUSH20 0xFFFFFFFFFFFFFFFFFFFFFFFFFFFFFFFFFFFFFFFF AND PUSH32 0x81ECAAA31E69FC17832354B83912ED393C78921B2E6FCF355113F2FB513E4F99 DUP3 DUP5 PUSH1 0x40 MLOAD PUSH2 0x5A3 SWAP3 SWAP2 SWAP1 PUSH2 0xA65 JUMP JUMPDEST PUSH1 0x40 MLOAD DUP1 SWAP2 SUB SWAP1 LOG2 POP POP POP JUMP JUMPDEST PUSH1 0x0 PUSH1 0x1 PUSH1 0x0 DUP4 PUSH20 0xFFFFFFFFFFFFFFFFFFFFFFFFFFFFFFFFFFFFFFFF AND PUSH20 0xFFFFFFFFFFFFFFFFFFFFFFFFFFFFFFFFFFFFFFFF AND DUP2 MSTORE PUSH1 0x20 ADD SWAP1 DUP2 MSTORE PUSH1 0x20 ADD PUSH1 0x0 KECCAK256 SLOAD SWAP1 POP SWAP2 SWAP1 POP JUMP JUMPDEST PUSH2 0x601 PUSH2 0x67F JUMP JUMPDEST PUSH1 0x0 PUSH20 0xFFFFFFFFFFFFFFFFFFFFFFFFFFFFFFFFFFFFFFFF AND DUP2 PUSH20 0xFFFFFFFFFFFFFFFFFFFFFFFFFFFFFFFFFFFFFFFF AND SUB PUSH2 0x673 JUMPI PUSH1 0x0 PUSH1 0x40 MLOAD PUSH32 0x1E4FBDF700000000000000000000000000000000000000000000000000000000 DUP2 MSTORE PUSH1 0x4 ADD PUSH2 0x66A SWAP2 SWAP1 PUSH2 0x8FE JUMP JUMPDEST PUSH1 0x40 MLOAD DUP1 SWAP2 SUB SWAP1 REVERT JUMPDEST PUSH2 0x67C DUP2 PUSH2 0x706 JUMP JUMPDEST POP JUMP JUMPDEST PUSH2 0x687 PUSH2 0x7CA JUMP JUMPDEST PUSH20 0xFFFFFFFFFFFFFFFFFFFFFFFFFFFFFFFFFFFFFFFF AND PUSH2 0x6A5 PUSH2 0x3B2 JUMP JUMPDEST PUSH20 0xFFFFFFFFFFFFFFFFFFFFFFFFFFFFFFFFFFFFFFFF AND EQ PUSH2 0x704 JUMPI PUSH2 0x6C8 PUSH2 0x7CA JUMP JUMPDEST PUSH1 0x40 MLOAD PUSH32 0x118CDAA700000000000000000000000000000000000000000000000000000000 DUP2 MSTORE PUSH1 0x4 ADD PUSH2 0x6FB SWAP2 SWAP1 PUSH2 0x8FE JUMP JUMPDEST PUSH1 0x40 MLOAD DUP1 SWAP2 SUB SWAP1 REVERT JUMPDEST JUMP JUMPDEST PUSH1 0x0 DUP1 PUSH1 0x0 SWAP1 SLOAD SWAP1 PUSH2 0x100 EXP SWAP1 DIV PUSH20 0xFFFFFFFFFFFFFFFFFFFFFFFFFFFFFFFFFFFFFFFF AND SWAP1 POP DUP2 PUSH1 0x0 DUP1 PUSH2 0x100 EXP DUP2 SLOAD DUP2 PUSH20 0xFFFFFFFFFFFFFFFFFFFFFFFFFFFFFFFFFFFFFFFF MUL NOT AND SWAP1 DUP4 PUSH20 0xFFFFFFFFFFFFFFFFFFFFFFFFFFFFFFFFFFFFFFFF AND MUL OR SWAP1 SSTORE POP DUP2 PUSH20 0xFFFFFFFFFFFFFFFFFFFFFFFFFFFFFFFFFFFFFFFF AND DUP2 PUSH20 0xFFFFFFFFFFFFFFFFFFFFFFFFFFFFFFFFFFFFFFFF AND PUSH32 0x8BE0079C531659141344CD1FD0A4F28419497F9722A3DAAFE3B4186F6B6457E0 PUSH1 0x40 MLOAD PUSH1 0x40 MLOAD DUP1 SWAP2 SUB SWAP1 LOG3 POP POP JUMP JUMPDEST PUSH1 0x0 CALLER SWAP1 POP SWAP1 JUMP JUMPDEST PUSH1 0x0 DUP1 REVERT JUMPDEST PUSH1 0x0 PUSH20 0xFFFFFFFFFFFFFFFFFFFFFFFFFFFFFFFFFFFFFFFF DUP3 AND SWAP1 POP SWAP2 SWAP1 POP JUMP JUMPDEST PUSH1 0x0 PUSH2 0x802 DUP3 PUSH2 0x7D7 JUMP JUMPDEST SWAP1 POP SWAP2 SWAP1 POP JUMP JUMPDEST PUSH2 0x812 DUP2 PUSH2 0x7F7 JUMP JUMPDEST DUP2 EQ PUSH2 0x81D JUMPI PUSH1 0x0 DUP1 REVERT JUMPDEST POP JUMP JUMPDEST PUSH1 0x0 DUP2 CALLDATALOAD SWAP1 POP PUSH2 0x82F DUP2 PUSH2 0x809 JUMP JUMPDEST SWAP3 SWAP2 POP POP JUMP JUMPDEST PUSH1 0x0 PUSH1 0x20 DUP3 DUP5 SUB SLT ISZERO PUSH2 0x84B JUMPI PUSH2 0x84A PUSH2 0x7D2 JUMP JUMPDEST JUMPDEST PUSH1 0x0 PUSH2 0x859 DUP5 DUP3 DUP6 ADD PUSH2 0x820 JUMP JUMPDEST SWAP2 POP POP SWAP3 SWAP2 POP POP JUMP JUMPDEST PUSH1 0x0 DUP2 SWAP1 POP SWAP2 SWAP1 POP JUMP JUMPDEST PUSH2 0x875 DUP2 PUSH2 0x862 JUMP JUMPDEST DUP3 MSTORE POP POP JUMP JUMPDEST PUSH1 0x0 PUSH1 0x20 DUP3 ADD SWAP1 POP PUSH2 0x890 PUSH1 0x0 DUP4 ADD DUP5 PUSH2 0x86C JUMP JUMPDEST SWAP3 SWAP2 POP POP JUMP JUMPDEST PUSH2 0x89F DUP2 PUSH2 0x862 JUMP JUMPDEST DUP2 EQ PUSH2 0x8AA JUMPI PUSH1 0x0 DUP1 REVERT JUMPDEST POP JUMP JUMPDEST PUSH1 0x0 DUP2 CALLDATALOAD SWAP1 POP PUSH2 0x8BC DUP2 PUSH2 0x896 JUMP JUMPDEST SWAP3 SWAP2 POP POP JUMP JUMPDEST PUSH1 0x0 PUSH1 0x20 DUP3 DUP5 SUB SLT ISZERO PUSH2 0x8D8 JUMPI PUSH2 0x8D7 PUSH2 0x7D2 JUMP JUMPDEST JUMPDEST PUSH1 0x0 PUSH2 0x8E6 DUP5 DUP3 DUP6 ADD PUSH2 0x8AD JUMP JUMPDEST SWAP2 POP POP SWAP3 SWAP2 POP POP JUMP JUMPDEST PUSH2 0x8F8 DUP2 PUSH2 0x7F7 JUMP JUMPDEST DUP3 MSTORE POP POP JUMP JUMPDEST PUSH1 0x0 PUSH1 0x20 DUP3 ADD SWAP1 POP PUSH2 0x913 PUSH1 0x0 DUP4 ADD DUP5 PUSH2 0x8EF JUMP JUMPDEST SWAP3 SWAP2 POP POP JUMP JUMPDEST PUSH1 0x0 PUSH2 0xFFFF DUP3 AND SWAP1 POP SWAP2 SWAP1 POP JUMP JUMPDEST PUSH2 0x930 DUP2 PUSH2 0x919 JUMP JUMPDEST DUP2 EQ PUSH2 0x93B JUMPI PUSH1 0x0 DUP1 REVERT JUMPDEST POP JUMP JUMPDEST PUSH1 0x0 DUP2 CALLDATALOAD SWAP1 POP PUSH2 0x94D DUP2 PUSH2 0x927 JUMP JUMPDEST SWAP3 SWAP2 POP POP JUMP JUMPDEST PUSH1 0x0 DUP1 PUSH1 0x40 DUP4 DUP6 SUB SLT ISZERO PUSH2 0x96A JUMPI PUSH2 0x969 PUSH2 0x7D2 JUMP JUMPDEST JUMPDEST PUSH1 0x0 PUSH2 0x978 DUP6 DUP3 DUP7 ADD PUSH2 0x820 JUMP JUMPDEST SWAP3 POP POP PUSH1 0x20 PUSH2 0x989 DUP6 DUP3 DUP7 ADD PUSH2 0x93E JUMP JUMPDEST SWAP2 POP POP SWAP3 POP SWAP3 SWAP1 POP JUMP JUMPDEST PUSH32 0x4E487B7100000000000000000000000000000000000000000000000000000000 PUSH1 0x0 MSTORE PUSH1 0x12 PUSH1 0x4 MSTORE PUSH1 0x24 PUSH1 0x0 REVERT JUMPDEST PUSH1 0x0 PUSH2 0x9CD DUP3 PUSH2 0x862 JUMP JUMPDEST SWAP2 POP PUSH2 0x9D8 DUP4 PUSH2 0x862 JUMP JUMPDEST SWAP3 POP DUP3 PUSH2 0x9E8 JUMPI PUSH2 0x9E7 PUSH2 0x993 JUMP JUMPDEST JUMPDEST DUP3 DUP3 MOD SWAP1 POP SWAP3 SWAP2 POP POP JUMP JUMPDEST PUSH32 0x4E487B7100000000000000000000000000000000000000000000000000000000 PUSH1 0x0 MSTORE PUSH1 0x11 PUSH1 0x4 MSTORE PUSH1 0x24 PUSH1 0x0 REVERT JUMPDEST PUSH1 0x0 PUSH2 0xA2D DUP3 PUSH2 0x862 JUMP JUMPDEST SWAP2 POP PUSH2 0xA38 DUP4 PUSH2 0x862 JUMP JUMPDEST SWAP3 POP DUP3 DUP3 ADD SWAP1 POP DUP1 DUP3 GT ISZERO PUSH2 0xA50 JUMPI PUSH2 0xA4F PUSH2 0x9F3 JUMP JUMPDEST JUMPDEST SWAP3 SWAP2 POP POP JUMP JUMPDEST PUSH2 0xA5F DUP2 PUSH2 0x919 JUMP JUMPDEST DUP3 MSTORE POP POP JUMP JUMPDEST PUSH1 0x0 PUSH1 0x40 DUP3 ADD SWAP1 POP PUSH2 0xA7A PUSH1 0x0 DUP4 ADD DUP6 PUSH2 0x86C JUMP JUMPDEST PUSH2 0xA87 PUSH1 0x20 DUP4 ADD DUP5 PUSH2 0xA56 JUMP JUMPDEST SWAP4 SWAP3 POP POP POP JUMP INVALID LOG2 PUSH5 0x6970667358 0x22 SLT KECCAK256 0x4F AND 0x1E 0xD4 SIGNEXTEND PUSH25 0x2692045ED9CC38043E76A7E81D2C9DC46688D77885CC3671D0 DUP16 PUSH5 0x736F6C6343 STOP ADDMOD EQ STOP CALLER "},"methodIdentifiers":{"POINTS_PER_DEPOSIT()":"41d7b1d3","STREAK_BONUS_POINTS()":"5e9cb48e","STREAK_MILESTONE()":"7fc842fe","claimPoints(uint256)":"3ac795de","getPoints(address)":"ee204abb","onDepositDay(address,uint16)":"b0fb5664","owner()":"8da5cb5b","points(address)":"358b8166","renounceOwnership()":"715018a6","savingsPool()":"6fa0e653","transferOwnership(address)":"f2fde38b"}}}}}